:10000000682300206D240000758100005924000041
:1000100059240000592400005924000059240000EC
:100020000000000000000000000000001926000091
:100030005924000000000000D925000059240000C8
:10004000A1270000A1270000A1270000A127000090
:10005000A1270000A1270000A1270000A127000080
:10006000A1270000A1270000A1270000A127000070
:10007000A1270000A1270000A1270000A127000060
:10008000A1270000A1270000A1270000A127000050
:10009000A1270000A1270000A1270000A127000040
:1000A000A1270000A1270000A1270000A127000030
:1000B000A1270000A1270000A1270000A127000020
:1000C000A1270000A1270000A1270000A127000010
:1000D000A1270000A1270000A1270000A127000000
:1000E000A1270000A1270000A1270000A1270000F0
:1000F000A1270000A1270000A1270000A1270000E0
:10010000A1270000A1270000A1270000A1270000CF
:10011000A1270000A1270000A1270000A1270000BF
:10012000A1270000A1270000A1270000A1270000AF
:10013000A1270000A1270000A1270000A12700009F
:10014000A1270000A1270000A1270000A12700008F
:10015000A127000053B94AB9002908BF00281CBFD5
:100160004FF0FF314FF0FF3000F00CB8ADF1080C4C
:100170006DE904CE00F010F8DDF804E0DDE90223BB
:1001800004B07047704700BF034613F8012B002AE4
:10019000FBD1181A013870472DE9F04786468C4686
:1001A0000846089E154674461946002B40F0C1804B
:1001B0008542B2FA82F245D94AB1C2F1200300FA6F
:1001C00002FC954094402EFA03F343EA0C0C4FEAEC
:1001D000154EA8B2230CBCFBFEF80EFB18CC08FB96
:1001E00000F943EA0C43994528D9EB1808F1FF3789
:1001F00004D2994502D9A8F102072B44A3EB0903C5
:10020000A4B2B3FBFEFC0EFB1C330CFB00F044EA73
:100210000344A04214D92C190CF1FF3304D2A0429C
:1002200002D9ACF102032C44241A43EA07401EB160
:10023000D440002334607360BDE8F0874746DDE7B3
:100240006346F1E792BB431B01214FEA154EAFB263
:10025000200CB3FBFEFC0EFB1C330CFB07F840EA42
:100260000343984561D9EB180CF1FF3004D298454F
:1002700002D9ACF102002B44A3EB0803A4B2B3FBF8
:10028000FEFC0EFB1C330CFB07F744EA0344A742B9
:100290004DD92C190CF1FF3304D2A74202D9ACF18D
:1002A00002032C44E41B43EA0040C0E7C2F12003F0
:1002B0009540944020FA03F12EFA03F34FEA154ECD
:1002C0009040AFB20343B1FBFEFC0EFB1C10190CB7
:1002D0000CFB07F841EA0041884522D969180CF166
:1002E000FF3004D2884502D9ACF102002944A1EBC9
:1002F00008019BB2B1FBFEFC0EFB1C110CFB07F7C7
:1003000043EA01439F420ED9EB180CF1FF3104D2AE
:100310009F4202D9ACF102012B44DB1B41EA0041B0
:1003200093E76046E3E76146F7E76046A4E7634684
:10033000B8E7834206D916B9002108467CE7C6E92A
:1003400000E0F9E7B3FA83F78FB9834201D372452E
:1003500008D8BEEB020460EB030301209C461EB9E3
:10036000002169E73846FAE7C6E9004CF8E7C7F12B
:10037000200CBB400EFA07F522FA0CF42EFA0CF111
:10038000BA401C4320FA0CF3B8404FEA1449014329
:100390001FFA84FEB3FBF9F809FB18300B0C08FBBD
:1003A0000EFA43EA00439A4540D9E31808F1FF30BA
:1003B00004D29A4502D9A8F102002344A3EB0A0310
:1003C00089B2B3FBF9F809FB183308FB0EFE41EACA
:1003D00003418E452CD9611808F1FF3304D28E45B4
:1003E00002D9A8F10203214443EA0040A1EB0E0127
:1003F000A0FB02984145CE46434602D306D14D4567
:1004000004D20138B9EB020E68EB0403002EA7D02A
:10041000B5EB0E0261EB030101FA0CFC22FA07F3C3
:10042000F9404CEA0303C6E9003199E74046C5E7C5
:100430004346D9E7002330B58BB08DF80130ADF8D5
:1004400004300223012401AACDE90423039302AB63
:10045000069304ABCDE908348DF80000CDF808D040
:1004600007940A480A49836806AA1D6808ABA8478A
:10047000031E07DA07482146074A07F0B2FDFF20AE
:100480000BB030BD9DF80500FAE700BFD09000002A
:10049000000000203C9300004097000070B560F021
:1004A0007F0388B08DF80C3003AB04930223012541
:1004B000059304AB04468DF80D1006930795084884
:1004C0000849836806AA1E680023B047031E05DAA0
:1004D000054A29460548009407F08DFD08B070BD17
:1004E000D0900000000000205A9700003C930000CC
:1004F0002DE9F04FA5B0032100AFBD4ABD4807F07C
:1005000016F8BD4808F0F8FA50B9BC4A0121B948BC
:1005100007F00DF84FF0FF309437BD46BDE8F08F7F
:100520000321B74AB34807F002F8B64C204608F05A
:10053000E3FA08B9B44AE9E7204608F0DDFA0028F2
:10054000F8D02269A1681368204623F48063136001
:100550000B684FF4C0220A219847002801DAAB4A01
:10056000D4E701220A21204606F0E3FFC82008F064
:10057000BEFA00220A21204606F0DBFF0F2006F01B
:10058000E8FF1020FFF756FF044603210346A04A68
:10059000984807F026FD242C01D09E4AB6E7032197
:1005A0009D4A944806F0C3FF002006F0E2FF0028B1
:1005B00066DB022006F0CDFF042006F0DAFF0028FB
:1005C0005EDB00210220FFF769FF02210320FFF715
:1005D00065FF40210420FFF761FF03210520FFF79D
:1005E0005DFF33210620FFF759FFE4210720FFF7C5
:1005F00055FFC0210820FFF751FF00210920FFF718
:100600004DFF9F211120FFF749FF1A211320FFF70B
:1006100045FF88211820FFF741FF55211920FFF7DA
:100620003DFF00212C20FFF739FF03212D20FFF78C
:1006300035FF88212E20FFF731FF2D212F20FFF7D6
:100640002DFFD4213020FFF729FFD0213720FFF7DD
:1006500025FF40213820FFF721FF8F213C20FFF7A5
:100660001DFF02213D20FFF719FF00212520FFF784
:1006700015FF042006F07DFF002824DA674A00E019
:10068000674A01215B4806F052FF0120FFF7D2FEC6
:1006900005462720FFF7CEFE04462820FFF7CAFEB6
:1006A0006E468AB06A4605235E49C2E90740C2E940
:1006B000051542F8103F00234FF421514D4801F039
:1006C00041F8B54626E70321574A4A4806F02FFF6E
:1006D0000023DFF858A1DFF85881DFF8589107F1BF
:1006E0001C055246302128465E1C06F099FCEB465C
:1006F0008AB06A4620EAE0744FF40073C2E90585C7
:10070000D461138442F8109F00234FF413513948E9
:10071000E4B201F017F8631E3F2BDD4662D82820B3
:10072000FFF788FE2246294607F14D0087F84C4026
:1007300008F023FC8023FB70FB1CFB6007F14C03DB
:1007400001257B6107F10C037B6002232C443D6192
:10075000BC61BB602848384983683A1D1C68002387
:10076000A047041E0CDA354A23462946214807F0E3
:1007700038FC01212346324A1E4807F032FC22E0B1
:100780000C2006F0F6FE00282FDB2E4C2E4DDFF855
:1007900064B02820FFF74EFE02070BD4C30604D531
:1007A0002A460221584606F0C2FE642008F09FF94E
:1007B000643CEED1042006F0DCFE5CB10321234A48
:1007C0000C4806F0B4FE4FF48030002105F0E8FF3D
:1007D000334684E701211E4A064806F0A8FE6FF062
:1007E0007304C6E76FF01504C3E76FF00404C0E7B5
:1007F0007B9700003C930000D09000009097000091
:10080000A59700006C900000B6970000CB97000001
:10081000E79700000B9800003298000067980000EE
:10082000449800008E98000059980000C798000076
:10083000E19800000400000100000020F59800008D
:1008400046990000C0270900109900002799000070
:10085000339900002DE9F04F91B0009302F00403AA
:100860000293C2F3C2030133840705460E46DDF846
:1008700068900392059340F0BB81041D30B10729B5
:1008800009D86FF01B0011B0BDE8F08F01F007062A
:10089000341DC6F10806009B4FF000084FF0040A13
:1008A000591E4FF0FF3347460193C3465346CDF8D8
:1008B00010800DB1009A22600598002800F3E880AE
:1008C0009848009A824203D397488242C0F0E08061
:1008D000039AA4EB050E92074FEA9E0000F10381F4
:1008E0000F2F00F2B180002D00F0058107F14002CA
:1008F0000DEB020C019A0CF8200C0CF8102C04984B
:1009000001300490E7E07A285DD84B280ED84728BC
:1009100059D829282DD8252852D054D820287AD023
:100920002338D0F1000B4BEB000B74E04C382E2831
:1009300049D8DFE800F070484848484848484848E7
:1009400048484B484848484848484859484B4B59FC
:100950005959704B6D487048184B184848827F4B66
:1009600048484B487F0000204FF0000B4FF0040A2E
:1009700038E001222A38C0B202FA00F010EA0E0F65
:1009800049D110F0625C2FD110EA020B43D06046CF
:10099000013C5444B4FBFAF40AFB04F4002D61D08A
:1009A000A3EB050CA444B4453FF66BAF002868D117
:1009B000042B47D159F8043B2360042304342AE074
:1009C000019A013A01924FF0000B24E011F8010C5A
:1009D0006C2834D1002011F8023C83466C2BC5D121
:1009E0004FF0080A5346D3E709F1070929F0070930
:1009F000073424F00704F9E802AB35B10698204427
:100A0000B0423FF63EAFC4E900AB4FF0000B0834F4
:100A10004FF0080A534611F8010F002878D0BBF1B7
:100A2000000F7FF470AF2528F5D14FF0010B019B2B
:100A3000013301934FF0040AECE7584694E7002095
:100A40008346A5E7082B02D06FF015001BE709F1DC
:100A5000070929F00709F9E80223C4E9002308235C
:100A60000834D8E768B9042B02D109F10409A4E7D6
:100A7000082BE9D109F1070929F0070909F108094B
:100A8000EDE7059A013A059259F8042B009210E718
:100A9000039A900720D54FF0010CA4EB050E4FEA06
:100AA0009E00BEF5007FCFD20F2FCDD8F5B107F154
:100AB00040020DEB020E019AC0B20EF8200C0EF8A7
:100AC000102CBCF1000F3FF41AAF60F07F000EF85D
:100AD000200C08F101080137C5F108024FF6DA7E53
:100AE0000434069297E74FF0000CDAE7BCF1000FF0
:100AF00001D00136EFE7029802360028EBD10098CA
:100B0000CDE90631FFF740FBDDE906310644E2E7B7
:100B1000631BB3F5806F97D245B9A6F10804E018BE
:100B2000B1E600BFC88F000040A50000029A9B08F4
:100B300028602B709DF81030C2B1EB7085F80280F0
:100B4000B8F1000F05D0002208A8C5F1010C9742AA
:100B50000ED14FF0000AC5F101030DF120090193F8
:100B60000DF1300B574512D1601B8CE66B70E5E739
:100B700010F8013B190608D504EB0C0EB64503F03E
:100B80007F033FF67EAE04F8013B0132DFE7B8F1A8
:100B9000000F03D099F90020002A17DB029BD3B184
:100BA0001AF80B2004F8012B0022019B981820440E
:100BB000B0423FF666AE99F80000009904F8010BC8
:100BC0002046039208F0D9F9039A14440AF1010A65
:100BD00009F10109C6E799F8002055F82230009381
:100BE000029B009845F82230FFF7CEFA421CDCE762
:100BF0006FF00D0047E600BF2DE9F04F97B000AF52
:100C0000D7F880B03B62CBF3C0030446894690F826
:100C100002A0FA62BB6141B9457800780AEB800016
:100C200020444D4517D8A0EB0409E378FB61BAF1E5
:100C3000000F02D01BF0010F16D1FB6953BBFB6AFA
:100C40001BB1494620463A6A98474D4628465C37CC
:100C5000BD46BDE8F08F461C3046FFF795FA0130DF
:100C6000304409F10109DCE7626823787A62FA6AA4
:100C70009900796104EB8301002A40F001810E465E
:100C80004FF000084D4601EB0A094E454CD101EBEF
:100C90000A0610E01BF0020FD1D023789A007A6187
:100CA000626804EB83017A62FA6A002A77D14D46C2
:100CB000904601EB0A061BF0050F0CBF022301232F
:100CC000FB62FB6906EB430A0BF00203BB6256456D
:100CD000BCD016F8021B16F8013C54F82390AF4B19
:100CE000994502D3AE4B994536D3BB69002B40D012
:100CF000786A06F06BFD00283BD0E9468AB06A4668
:100D0000A84B53617B6AC2E906314FF40073138428
:100D1000A54B42F8103F00234FF41251A34800F0B6
:100D200011FD023DCD46D2E716F8013BF96254F8B9
:100D30002300FFF729FAD7F88430F96A01304BB164
:100D4000D7F8883098453EBFD7F8843023F818008C
:100D500008F10108054498E7BB6923B1786A06F0F9
:100D600035FD0028C9D11BF0010F05D1FB6AED1A32
:100D7000ADE7BB6A002BAAD04846FFF705FAD7F8C3
:100D8000843053B1D7F8883098453FBFD7F88420D6
:100D9000431C22F8183008F10108054497E7BAF11E
:100DA000000F73D01BF0040673D0D046002607F165
:100DB000480052463B61B96208F0DFF8B96A3B6906
:100DC00001EB0A02BA62FA69F9695200FA60BA6A7A
:100DD00002EB41023A610BF00202BA603A69B96A69
:100DE0008A4258D162781BF0020F18BF00217A6244
:100DF00008BF4FEA5801B2181BF0010FD2B240F001
:100E00009F801BF0040F14BF40460020BB6162703E
:100E1000A070E17020463A6A7969FB6A9847051E1E
:100E2000FFF614AFBB69414623707B6A3A6A637070
:100E3000FB6984F802A0E37007F14800FB6A984759
:100E4000B0F10008C0F2B4807B69A9EB0A01C91AAD
:100E5000FB683A6AC91AD7E90A0398470028C0F222
:100E6000A9804FF0000BA84408EB000507F1380AF1
:100E7000B34567D300213A6A0846FB6A9847E5E61E
:100E800056464FF0000807F1380092E75646D04624
:100E900096E7B04694E7BA6A12F8021B12F8015CB2
:100EA000BA6254F825003D4A904202D33C4A90422F
:100EB0001ED3BA6932B1786A7B6006F087FC7B6822
:100EC00000288BD1BA6802BB08F1280207F1300C68
:100ED00008F10100944407F1580208F1020852FA9F
:100EE00080F00CF8101C5FFA88F800F8105C75E7C9
:100EF000BA693AB1786A7B6006F068FC7B680028C2
:100F00007FF46CAF1BF0010F09D006F1280207F146
:100F10003000711C161806F8205CCEB25EE71BF09C
:100F2000040F3FF45BAF08F1280207F1300008F12D
:100F3000010102EB000808F8105C5FFA81F84DE748
:100F4000002063E71BF80A3054F8239087F8373005
:100F5000D7F88430FBB133F81B8001213A6AFB6A71
:100F600007F137009847002824DB0544B8F1000F4B
:100F700006D14846FFF708F900F101081FFA88F882
:100F8000414648463A6AFB6A9847002812DB054406
:100F90000BF1010B6CE7D7F88480DEE7C88F000007
:100FA00040A500005F990000040000010C930000C0
:100FB00045464BE6054649E6014B1860704700BFC1
:100FC0001400002080B505460E461746984605F0E9
:100FD00005FC034607F0EEFF0446DFF81890424692
:100FE00049F8003039463046A84754F8090001F066
:100FF000A5FA00BF080000002DE9F047058B044664
:101000002807904611D4022905F0070540F0CC804E
:10101000204606F06FFE78B10138218B042811D8E4
:10102000DFE800F0C2106D85950001290CBF45F086
:10103000100545F02005258388F31188BFF36F8FD5
:10104000BDE8F08701F0070AAA4500F0A580002757
:10105000B9463E46A368002B00F0BC8041F0080171
:10106000218388F31188BFF36F8FA168002900F0F6
:10107000BA800D68002900F0B680334652462046FB
:10108000D1F80480C047002D76D02B6829461D4634
:10109000F0E701F007035A1F012A1BD8002221F0B4
:1010A0000701062B276889B2C4E9002209D13B4613
:1010B00003E0628B013262831B68002BF9D141F09F
:1010C00002012046218306F015FE00287AD041F067
:1010D000200176E0042B0AD121F0070189B22046D5
:1010E000218306F007FE10B141F020012183218BFE
:1010F00001F0070AAA454FD00027B946AAE723699D
:1011000021F0070141F00601062DD3F8009021835C
:101110002DD1B9F1000F3FD041F00801218388F3B0
:101120001188BFF36F8F20463949C84729E021F065
:101130000701236941F0040189B2042DD3F804901A
:101140002183E6D000274FF0040A3E4682E721F0D3
:101150000701236941F0050189B2052DD3F80890F4
:101160002183D6D000274FF0050A3E4672E70027BC
:101170004FF0060A3E466DE72B4687E7B9F1000FB0
:10118000D1D1EFF31188202383F31288BFF36F8F3F
:10119000238B23F008032383258BEA062ED525F025
:1011A0001003238305F007056669218B002EBFF627
:1011B00070AF00232768C4E9003321F0070141F034
:1011C00001012183218B4FF0000901F0070AAA4594
:1011D0007FF440AF002F9CD041F00801218388F3B9
:1011E0001188BFF36F8F002FC8D03D683946334652
:1011F0005246204606F0AAFD2F46F4E7AB067FF5DF
:101200001BAF25F02003238305F0070500E700BF8F
:10121000797D00002DE9F047044607464FF00109AB
:10122000DFF8508014B93846BDE8F08794FAA4F589
:10123000B5FA85F509FA05F32E0108EB05156FEAF5
:10124000030A24EA03042B7B002BEBD058F806306A
:101250001B694BB94644736804222846196807EA9B
:101260000A0700F05BFADDE7284698470028D9D145
:10127000F0E700BF7493000030B5002289B00F4939
:101280000F4807F0F0FD002200230024CDE90623DB
:101290000E230C4DCDE903344FF440722846CDE9BE
:1012A0000144094B0949009404F0CAFF0849284643
:1012B00007F0CBFC204609B030BD00BFD5120000BE
:1012C00068070020E0020020C1150000281300205C
:1012D000139A0000014804F00FBF00BFD0020020A5
:1012E0002DE9F04780461F480F4606F0EFFD064601
:1012F000002830D000252846BDE8F087237B6BB15D
:101300002368DB680BB12046984723681B69D3B973
:10131000636804222046196800F000FA0136103490
:101320004C45EBD3B8F1000FE5D0002DE2D02846B4
:10133000FFF770FF0546002FF7D000214FF4A4708F
:1013400005F02EFAF1E7204698470028E0D00AFA87
:1013500006F31D43E2E705464FF0010A024CDFF8B1
:101360000C90DDE780090020749300008493000056
:10137000014B53F820007047AC93000008B50346BA
:1013800008462BB1044A136000F072FC002008BD2F
:101390006FF01500FBE700BF1800002010B5044CEB
:1013A000237813B9034804F0A7FE0123237010BD6E
:1013B000FC120020D002002010B50446094806F0B7
:1013C00085FD3CB1084BD3E8EF1F0139C3E8E21FAC
:1013D000002AF8D1054807F052FDBDE81040044846
:1013E00004F08ABE780900207C09002068070020EC
:1013F000D002002000200146034BD3E8EF0FC3E8E2
:10140000E21F002AF9D170477809002070B5FFF774
:10141000F1FF0546074C084EB44200D370BD636827
:101420005B792BB123685B6813B129462046984746
:101430001034F1E7749300008493000010B5044C5D
:101440000449204606F0F2FA034B1C6010BD00BFB1
:1014500044020020989300007009002008B5002382
:10146000074A4FF400411370064A07481360074AC1
:101470001360FFF783FFBDE80840FFF7DFBF00BF41
:10148000FD12002078090020C97E00007C090020A0
:10149000014600220023014806F0E9BA4402002078
:1014A000014806F07FBB00BF44020020024B01460A
:1014B000186806F0CBBB00BF70090020014806F099
:1014C00000BC00BF4402002070B5264B18780028ED
:1014D00047D0FFF7E5FF054670B1234BD3E8EF1F78
:1014E0000139C3E8E21F002AF8D1204C204EB44253
:1014F0002DD32846FFF7DAFF1E4B1F4C1B68002B2D
:1015000019DD07F0AEFC4FF47A72A0FB020302FB78
:101510000131C30B43EA4143D4E900209B1A40F256
:10152000E9324FEAD13161EB0001934271F10001E0
:1015300001D3FFF76BFFD4E9003213F57A7342F160
:101540000002C4E90032BDE87040FFF7B7BF63682E
:101550005B7923B12368294620461B6898471034DD
:10156000C5E770BDFC1200207C09002074930000C8
:1015700084930000780900206007002070B50D4DAD
:10158000297861B90120FFF7ABFE0B4C0B4EB4423A
:1015900006D3FFF799FF0028FBD101232B7070BD04
:1015A00063685B791BB1236820469B6898471034B9
:1015B000EDE700BFFD12002074930000849300004B
:1015C00000212DE9F0470846FFF78AFE044658B38C
:1015D00040F267684FF0000907F0ECFC1B4B1C4A17
:1015E0001B58136033B11B4B1B68092B02DD1A48D3
:1015F00004F082FD0025194FDFF85CA044B12046BD
:10160000FFF708FE044618B94FF0FF384FF0FF39D6
:10161000FFF75AFF064628B9B5B942464B46504631
:1016200004F08EFD3546E9E74FF0FF384FF0FF3903
:10163000D2E72B689B691BB10022284611469847C8
:101640001035BD42F5D3E8E7054DFAE70800000084
:10165000740900207C090020D0020020849300003F
:101660007493000013B5184806F030FC174B1B7834
:1016700073B1EFF31184202383F31288BFF36F8FCC
:10168000FFF722FF84F31188BFF36F8F02B010BD04
:101690000F4B1B68002BF9D050B9002200230D48D6
:1016A000CDE900234FF40042002305F0EDFAEDE709
:1016B0000928EBD1074807F0E2FB074802B0BDE874
:1016C000104004F019BD00BF7C090020FD1200206D
:1016D0007409002068070020D002002010B5064BD6
:1016E00004461B6898472146A060044806F03BFA70
:1016F000BDE81040FFF7B6BF1800002044020020EC
:10170000044A054B9B1AB1EBD30F34BF52F831009A
:10171000002070470C93000074930000084B10B435
:10172000C31A44681B110133237143689A71012263
:101730004368196043685A7110BCFFF72FBE00BFA1
:10174000749300002DE9F04F8FB0C1F34A2804AF25
:101750000D469146B8607B600C0DB8F1000F63D068
:1017600000264FF0040B4FF00A0A07F11403C7F8E4
:101770000C80C7E907667E620193CDF808B0CDF80A
:1017800000A007F11C0332464846F968FFF734FA17
:10179000B0F5006F03461CD36C468AB0D9F804102C
:1017A00004AB26481A46C3E9050140F2FF71D9612E
:1017B0004FF400711984224B42F8103F4FF412513C
:1017C00033462048FFF7BEFFA5462C37BD46BDE88F
:1017D000F08FC0F30A0804F11700184420F0070046
:1017E00080083B60FFF754FE68F35325044690B130
:1017F0003B6800F11001C7E9083607F11403F961ED
:10180000CDE900A3CDF808B048460F4AF96807F1C2
:101810001C03FFF7F1F968F353252A4620467B683D
:10182000B96806F085FBD0E704F1170020F0070047
:101830008008FFF72DFE0446EDE700BF289A000060
:10184000040000011C930000057F00002DE9F04F0B
:1018500087B00446DDE9105ADDE9127993469846CF
:101860000391BFB13B46524610210020CDF80090B5
:10187000CDF81490FEF7EEFFB0F5006F06460AD3E0
:1018800040F2FF730221174A174807B0BDE8F04F36
:1018900006F0A7BB3E4605F11700304420F00700D4
:1018A0008008FFF7F5FD04F007040BF0070BE400D8
:1018B00044EA8B1444EA462444EA0554054640B100
:1018C0003FB13B4652463146CDF800901030FEF70E
:1018D000C1FF434622462846039907B0BDE8F04FB2
:1018E00006F026BB679A00001C930000406820B1F8
:1018F000034BC01A40F3CF0070474FF0FF307047E2
:101900000C9300000EB403B503AB53F8042B01464F
:101910000448019301F078F902B05DF804EB03B0DC
:10192000704700BF45800000CA0605D48B064CBF37
:1019300002490349FFF7E6BF704700BFA09A0000C5
:101940009F9A00002DE9F04F89B09B46149B9DF8AB
:101950004CA00693159B04460593169B0D46904696
:10196000179E0493BAF1000F00F09D8006F4807377
:10197000079306F0C5FA06F00209024600283ED099
:1019800020469149FFF7BEFF0746B9F1000F08D086
:1019900016F0440F35D12A4620468C49FFF7B2FF96
:1019A000074406F0010353B1894B204653F82A201F
:1019B000884B8949002A08BF1A46FFF7A3FF06F49F
:1019C0008073002B49D006F00803002B63D1B8F1D7
:1019D000000F66D0424620468049FFF793FF054638
:1019E000069B3D44002B6DD1049B002B73D1F30764
:1019F00000F1E48031462046FFF796FFD8E0074625
:101A0000C3E7774B18680028CAD0764B4FF47A7931
:101A10001B684FF46161B5FBF3F5B5FBF0F300FB18
:101A2000135509FB05F5B3FBF1F2B5FBF0FE4FF0E2
:101A30003C0C01FB123100FB1E55B1FBFCF309FB12
:101A400005F5B5FBF0F50CFB131120460091CDE92F
:101A500001E56549FFF756FFA2E706F00803EBB181
:101A6000624B204653F82A206149FFF74BFF054699
:101A7000B8F1000F05D0424620465849FFF742FF13
:101A80000544BBF1000FABD05A4620465949FFF739
:101A900039FF0544A4E74FF0000BE1E706F0080525
:101AA000E6E745469CE7BBF1010F069B06D1002BFC
:101AB00064D1049B002B7BD000250CE0002BF8D0D8
:101AC0004D485CE04D48069B22464D4905F04DFED1
:101AD000049B002B68D0DFF82C81DFF82C91049F49
:101AE0003146102F204628BF10274FF0000BFFF77C
:101AF0001BFF5D4545DC059B494620461A78FFF7EC
:101B000001FF4FF0010B1BF0070F03D141462046A8
:101B1000FFF7F8FE5F453BD9059B4946204613F881
:101B20000B20FFF7EFFE0BF1010BBBF1100FEAD119
:101B30004FF0000B20463549FFF7E4FE5A46059B5F
:101B400020469A5CA2F120015F2928BF2E2230494D
:101B5000FFF7D8FE0BF1010BBBF1100F1DD01BF0EE
:101B6000070F03D141462046FFF7CCFE5F455A469A
:101B7000E5D841462046FFF7C5FEEBE71F4855462E
:101B8000A1E741462046FFF7BDFE0BF1010BB0E790
:101B900020462049FFF7B6FEC5E7059B3B44059369
:101BA000049BDB1B04939AD1BAF1000F7FF41FAFA3
:101BB000204609B0BDE8F04F06F037BA2046054A86
:101BC0000549FFF79FFE15E7A79A0000AB9A0000B2
:101BD000BC930000A29A000020A30000D09A00004D
:101BE0008809002084090020B49A0000D0930000E6
:101BF000D49A0000DA9A000073800000458000004B
:101C0000092C0000E79A0000DF9A0000E99A000022
:101C1000EB9A0000E59A000042F20F7373B58B4215
:101C200028BF0B4605680446052168460D4A05F0A5
:101C3000F7F90646636828460B225B680A4906F0F6
:101C4000E6F963683246694628465B6806F0DFF9C4
:101C500063681B2228465B68044906F0D8F902B085
:101C600070BD00BF539900000A9B0000EE9A00006F
:101C700000210123064A904206D8064A01B90123F1
:101C80001360054B18607047012140085B00F2E7C4
:101C900040420F008409002088090020F8B50D4655
:101CA0000446064F4618B44201D12846F8BD14F840
:101CB000011BBB6801485B689847F4E794900000FB
:101CC000014B0360002070471894000008B50448D9
:101CD00005F0A3FDBDE80840024805F09EBD00BF29
:101CE000509B0000859B0000014805F057B800BFDD
:101CF0001894000038B5044618B90F4B0F485B68BC
:101D000098476168B1F5683F10D0B1F5680F0DD004
:101D10000B4DA9420AD011F46861206807D0014632
:101D2000084806F041FF00232360656038BD142297
:101D300007F030F9F9E700BFD4010020B39B0000A1
:101D40002C5F5CA9B00E002008B560B34368B3F502
:101D5000683F0ED0B3F5680F18D0144A934220D0D4
:101D600000684FF0FF324FF0FF3304F011F958B123
:101D700015E001220368D3E8EF1F002903D1C3E86F
:101D8000E02F0028F7D10AD1002008BD0368084AD7
:101D90001B7803F5807352F82330002BF4D00548EC
:101DA000F3E70548F1E76FF4E040EEE72C5F5CA94C
:101DB00000000350E98FFFFFEA8FFFFF08B520B353
:101DC0004368B3F5683F09D0B3F5680F13D0114AE3
:101DD00093421DD0006804F053F914E00022036818
:101DE000D3E8EF1F012903D1C3E8E02F0028F7D182
:101DF00009D0094808BD00210368084A1B7803F58B
:101E0000807342F823100020F4E76FF4E040F1E71C
:101E10000348EFE72C5F5CA9E98FFFFF0000035048
:101E2000EA8FFFFF10B5044618B91D4B1D485B68CB
:101E300098476368B3F5683F2FD0B3F5680F2CD08F
:101E4000194A934219D1236803BB4FF0FF324FF078
:101E5000FF332146154804F06DF808B923681BB913
:101E60000F4B13485B68984714220021206807F045
:101E700091F84FF46863636008E0B3F5683F0DD8EC
:101E80003A2B03D040F6BA629342DED1206806F0C6
:101E9000C3FE636843F03A03636010BD054AF3E78D
:101EA000D4010020B39B00002C5F5CA9B00E002081
:101EB000D99B00003A00003A08B506494023142295
:101EC000054806F063FEBDE808400449044804F0F4
:101ED000D7BF00BFB0090020B00E00202094000042
:101EE000349400002DE9F04706460C4600AF002967
:101EF00036D0D1E90012E9468AB06D46A3684FF0AA
:101F0000050AA8461F48C5E90723C5E9050148F8A1
:101F100010AF002342464FF421511B48FFF712FC3B
:101F2000D4E90312CD466369AD461848C5E90723D5
:101F3000C5E90501C5F810A0002342464FF4215120
:101F40001148FFF7FFFBCD46E3690121104A0E4817
:101F500006F047F8A36901210E4A0B4806F041F844
:101F6000012E07D1EFF305830B4A31460648103B9B
:101F700006F037F82146304603F02EFEBD46BDE898
:101F8000F08700BF069C00004C930000359C0000C9
:101F9000649C0000739C0000A19C000030BFFFF710
:101FA000FDBF00BF2DE9F04105460B4EDFF82C8048
:101FB000324606EB0807CC1B2046094906F0DDFF38
:101FC000A01942460021083C06F0E4FF2C6707F107
:101FD0000800BDE8F08100BF000000000400000020
:101FE00084930000074A936893F90E10002907DBD9
:101FF000526993421FBF044A536843F080535360B1
:10200000704700BFF410002000ED00E070B52A4CCE
:1020100006460D4629482A4906F0B3F8A36ADB06AE
:1020200047D52648274906F0ACF81120A36A1C07BB
:1020300004D52248244906F0A4F812201E4CA36AB5
:10204000990712D521491D4806F09BF8636BA26AD7
:10205000120609D501211E4A184805F0C2FF1EB11B
:10206000A36A23F08003A3621320134CA36ADE0744
:1020700004D51248174906F084F81420A36A9C0678
:1020800004D50E48144906F07CF815200A4B9A6ACC
:10209000D10658BF9A6A9A6A920642BF5A6A22F4D7
:1020A00000525A629A6A42F0FF029A6200232B7031
:1020B00070BD1020BAE700BF00ED00E04C930000B7
:1020C000B49C0000CA9C0000FD9C0000109D000014
:1020D000289D00003E9D00005D9D000010B5244C31
:1020E0002449254806F04DF8A36A99013ED52248B7
:1020F000224906F046F81E20A36ADA0104D51E48DC
:102100001F4906F03EF81F20194CA36ADB0204D5D4
:1021100019481C4906F035F80220A36A1C0304D5AF
:102120001548194906F02DF82120114CA36A5903CE
:1021300004D51148154906F024F82220A36A9A0311
:1021400004D50D48124906F01CF82320084CA36A58
:10215000DB0304D508480F4906F013F82420A36ACE
:102160006FEA03436FEA1343A36210BD1D20C3E768
:1021700000ED00E08C9D00004C930000A49D000049
:10218000B79D0000D19D0000FB9D0000199E00003E
:102190003E9E0000589E000070B5294C06460D4634
:1021A0002848294905F0EDFFA36AD9043CD5254804
:1021B000264905F0E6FF1720A36A1A0504D5214831
:1021C000234905F0DEFF18201D4CA36A9B0512D59C
:1021D0001C48204905F0D5FFA36BA26A100409D55D
:1021E00001211D4A174805F0FCFE1EB1A36A23F425
:1021F0000043A3621920124CA36A590504D5114863
:10220000164905F0BEFF1A20A36ADA050ED50D485F
:10221000134905F0B6FF1B20094A936A43F47F4334
:10222000936200232B7070BD1620C5E7A36A9B0440
:10223000F2D504480B4905F0A4FF1C20ECE700BFD1
:1022400000ED00E04C930000839E0000999E00008A
:10225000FD9C0000AA9E0000C39E0000D89E0000C6
:10226000F39E00005D9D00002DE9F0418AB0654BB2
:102270000446D3F80480002600AFC8F3080586F3AF
:102280001188BFF36F8F02F07F43B3F17F4F07D107
:1022900002F00C03082B12D15B495C4805F071FF7A
:1022A000002634460023FB71EB1E092B00F28980C7
:1022B000DFE803F00A7F827C87878787878510079E
:1022C0004CBF0C460126EDE75149504805F059FF37
:1022D00000234C4DFB71EB6A9A0705D54D494B48DD
:1022E00005F04FFF002332E0EB6A002B01DA4A4988
:1022F000F5E7EB6A5B00F5D54849444805F041FF36
:102300006B69A26943F480736B61BFF34F8FBFF3B6
:102310006F8F6B6932F8022C23F480736B61BFF30B
:102320004F8FBFF36F8F4DF602739A4208D0AB6A9E
:10233000DBB273B30120F91DFFF768FE034606E028
:1023400023680121364A314805F04BFE2368FA79AB
:10235000DAB907F1080504F1200C2A462068616803
:10236000083403C264451546F7D17A6A002E44D07A
:10237000C2F3080121B96FEA52226FEA42227A625F
:10238000184607F10801FFF7ADFD2837BD46BDE847
:10239000F081AB6A13F47F4F04D00120F91DFFF7E1
:1023A000FBFECBE7AB6AB3F5803F9BD3FFF796FE0E
:1023B000C4E70020F91DBFE70020F91DEFE7194928
:1023C0008DE7194A18F4F87FE8468AB0174B18BF12
:1023D00013466A461649103DC2E905134FF40073CF
:1023E0001384144BD56142F8103F00234FF4115170
:1023F0000648FFF7A7F9C54674E722F4FF7222F0FA
:102400000102BCE700ED00E0399F00004C930000A2
:10241000649F00007B9F00009C9F0000AA9F00001B
:10242000C99F0000E59F0000209F00000B9F000057
:1024300009A0000004000001064B5A6942F0100296
:102440005A615A6942F480625A615A6922F008025C
:102450005A61704700ED00E0EFF30880EFF3098167
:1024600001B57246FFF700FF01BD00BF002080F3F9
:102470001488BFF36F8F002080F30A8880F30B88E5
:1024800002F0E0F900200E490860BFF34F8F0D48BD
:1024900080F3088800F02CF8202080F311880A4887
:1024A0004FF40061401880F30988EFF31480022193
:1024B000084380F31488BFF36F8F00F003F9000026
:1024C00094ED00E068230020281600200023184621
:1024D0000649D1F89020C2F30722934200DB7047EF
:1024E000C1F89830C1F8A0000133F6E700ED00E034
:1024F00010B572B6002484F31388FFF7E7FF234674
:102500004FF0FF300C4A03F120010133102B42F849
:102510002100F8D100234FF0FF30074A03F160019A
:102520000133102B42F82100F8D162B6BFF34F8F70
:10253000BFF36F8F10BD00BF00E100E0084B9B6848
:1025400083420BD1EFF3058343B1064B5A6842F047
:1025500080525A605A6A22F400425A6206F046BC1F
:10256000F410002000ED00E06FF00A01084A9368C3
:102570009967084958674B6843F080534B600023C4
:1025800083F31188BFF36F8F9368986F704700BF14
:10259000F410002000ED00E0EFF31183202383F31B
:1025A0001288BFF36F8F4FF00061084A5369936040
:1025B000074A5160196F074A116000215A6F596725
:1025C00082F31188BFF36F8F704700BFF4100020B3
:1025D00000ED00E0CC0E00200E498A684FF030007C
:1025E0001044EFF3098C80E8F01F74467046FFF743
:1025F000D3FFA64607498A6802F1300090E8F01F31
:102600008CF3098802F1000004B505F0C2FDBDE8B5
:1026100004407047F41000201EF0040F0CBFEFF3CD
:102620000880EFF30980816911F8021C0229FFD0AC
:1026300001B505F09BFD01BD40B2002807DB012379
:102640004109034A00F01F00834042F821307047DF
:1026500000E100E040B200280CDB012206494309FA
:1026600000F01F008240203341F82320BFF34F8F3A
:10267000BFF36F8F704700BF00E100E0054B4209D8
:1026800053F82220012300F01F0003FA00F010404D
:10269000704700BF00E100E040B2002801F10101F5
:1026A000ACBF00F16040064B4FEA4111C9B2ABBF6D
:1026B00000F5614000F00F0080F8001319547047D6
:1026C00014ED00E00B4A08B50B4B22F07F029A6034
:1026D000BFF34F8FBFF36F8FD3F8882022F47002BF
:1026E000C3F8882003F064FB04F004F900F04CF810
:1026F00003F09EFB0000000000ED00E042F8203CEB
:10270000009B0B4942F81C3C019B21F0010142F85F
:10271000183C029B42F8081C42F8143C4FF08073AE
:1027200042F8043C0023203A02654367704700BF2B
:10273000C50F000000B50D4B15469860026F0C4B9D
:102740000E461A60036E83F30B882C4686F30988C5
:102750004FF00000074B984720464FF000014FF024
:1027600000024FF00003044C204700BFF41000208B
:10277000CC0E00209B810000C50F00001022014BF1
:102780001A61704700ED00E0002320210348C218C1
:102790000133452B82F80013F9D1704700E100E0C6
:1027A00008B5EFF30583064A103B02EBC30152F86C
:1027B000330049688847BDE80840FFF713BC00BFF5
:1027C000E49000001FB5094C094A2346012109483D
:1027D00000F012F900230393074B0121E41A01A82A
:1027E0000193029400F012F904B010BD000007201C
:1027F0000000002044940000E002002010B50C7A94
:102800000B6804F01F0223F01F031A43CB6864090E
:1028100023F01F03054943EA440343F00103C1F8D1
:102820009800C1F89C20C1F8A03010BD00ED00E078
:1028300010B50A4BD3F89030C3F30723013B9842FD
:1028400008D901210346064A064805F0CAFB6FF085
:10285000150010BDFFF7D2FFFBE700BF00ED00E061
:1028600020A00000449300002DE9F04F8946144653
:1028700006464FF00008514D85B0C84527DAD6F816
:1028800004A0BAF1000F44D0BAF11F0F17D91AF003
:102890001F0F14D1D6F800B01BF01F0F0FD15846F0
:1028A00005F0B7FC07460AEB0B00013805F0B1FC58
:1028B000874210D06FF01507414A3B4601E043467E
:1028C000404A0121404805F08CFB6FF0150420467A
:1028D00005B0BDE8F08F17F1160FEDD0BC42EBDD6F
:1028E000C5F89870D5F89C10C5F89870D5F8A03048
:1028F00021F01F0143F01F0BD6E900321A44994220
:1029000002F1FF3A1DD1D34507D13146F8B205F0A7
:1029100089FC08F101080C36AFE73146C5F898701C
:10292000D5F89C3022F01F0203F01F031343C5F8B3
:102930009C30E0B205F076FC10F1160FC5D0441CB7
:10294000E7E7C5F89870D5F8A020013B23F01F03F6
:1029500002F01F021343D3453146E0B2C5F8A03060
:10296000E8D005F05FFC10F1160FAED0C5F89870F6
:10297000D5F89C209DF808300BF1FF3B62F304036F
:102980008DF80830D5F8A0309DF808205B0863F377
:1029900047128DF80820D6E900321344009323F043
:1029A0001F035B44A3EB0A03013023F01F036946B6
:1029B000C0B20393FFF73CFFBEE700BF00ED00E0AD
:1029C00069A0000046A00000449300000522044BCB
:1029D000C3F89420BFF34F8FBFF36F8F704700BFD2
:1029E00000ED00E0BFF35F8F0022024BC3F894209C
:1029F000704700BF00ED00E010B5034C2278FFF7F0
:102A000033FF207010BD00BFFF1200202DE9F74FEB
:102A1000294D8A4606464FF00008AB46274FD04561
:102A20001BDAD6F80490B9F1000F3FD031680846A0
:102A3000019105F0EEFB0199044609EB0100013814
:102A400005F0E7FB84424FF014021D4B08D002FB57
:102A500008F36FF015024BF8032003B0BDE8F08FC8
:102A600014F1160F2C60F8D01978A142F5DD02FBA5
:102A700008B0C7F89840C7F89840D7F89C4000F1D4
:102A80000801007B64F304000871D7F8A0000C79FA
:102A9000400860F347140C71D7F89C1021F01F0117
:102AA0006960D7F8A01021F01F01296108F1010821
:102AB00014350C36B3E700BFD00E002000ED00E067
:102AC000FF120020F0B54149414CD1F89030256803
:102AD000C3F307239D4287B075D80020FFF782FF1C
:102AE0003C4BC1F8C030854216D13B4C01A8257043
:102AF000FFF7E6F800250646384FAE4213D1002016
:102B000023783249D1F89020C2F30722934254DB54
:102B1000FFF75CFF00202FE0616801EB0011FFF779
:102B20006DFE0130DFE70199280101EB0513DA683A
:102B30003A40B2F5001F21D0B2F5800F2BD0B2F58C
:102B4000801F38D15A689B680958013B22F01F004A
:102B500003440120844623F01F0340EA4C10CDE9D2
:102B600002218DF8100002A920780593FFF760FE7E
:102B700000281DDA6FF0150007B0F0BD5A689B6899
:102B80000958013B22F01F0003444FF0020C0120C2
:102B900023F01F03E1E75A689B680958013B22F0C4
:102BA0001F0003444FF0000C062023F01F03D4E75E
:102BB00023780133237001359FE7C1F89830C1F8BD
:102BC000A00001339EE74FF0FF30D5E700ED00E0B5
:102BD00050940000AAFF4400FF1200200000F0FF04
:102BE00008B5024B1B689847002008BDE40E002082
:102BF000034B044A1860937843F0020393707047C4
:102C0000E40E002044000020F0B587B007460E46D1
:102C100014460021102268461D4606F0BBF9022327
:102C20008DF80230054B2A4621466846CDE90476E8
:102C3000019304F021FA07B0F0BD00BF57820000F5
:102C400008B50649064821F00701C1F1005202F516
:102C5000E02204F032FD002008BD00BF6F230020F9
:102C6000E80E002000F01F0240090DD001280DD110
:102C7000094B03EB8203D3F8002222F0E04242EA40
:102C80000171C3F800127047044BF2E70023803251
:102C900053F82230FFDE00BF002884500025845006
:102CA00038B50124134B144DC3F80045022303210A
:102CB000C5F8D0360020FFF7D5FF20460321FFF7E7
:102CC000D1FFC5F804472146C5F804492120C5F8BD
:102CD000004BFFF7C7FF21462020FFF7C3FF214627
:102CE0002520FFF7BFFF21462420FFF7BBFF002070
:102CF00038BD00BF001000500040005007B50DF176
:102D0000070001F0C9FE114B98421CD14FF48062BC
:102D10000F4B1049C3F8B8254FF40062C3F83C25A7
:102D20009DF8070005F0E3FC0B499DF8070005F04E
:102D3000D9FC01209DF80730984001F0A1FE002049
:102D400003B05DF804FB6FF00B00F9E70000AD0B7A
:102D500000A002502CA0025028A10250052370B5FB
:102D6000144D154E2C780134B4FBF3F303EB8303BD
:102D7000E41A05F0A5FC114A137823B156F8243063
:102D8000C01A072814D94FF05023D3F8141141B1B9
:102D90000021C3F81411D3F814312C700CB901239D
:102DA00013702C7805F08CFC46F82400012070BDCF
:102DB0000020FCE701130020F40E00200013002087
:102DC00048B1054B054A1B68B3FBF2F35843044B6B
:102DD00043F00103184770472C01002040420F00C8
:102DE000909300000149024804F0D3BF789400009A
:102DF000080F00204FF47F032DE9F041D3F8302174
:102E00000646072A0D46D3F8343120D1023B032B66
:102E100002D8124AD35CD3B14FF050244FF00108CE
:102E200000270520C4F81886C4F8147605F058FC6D
:102E30004046C4F8148605F053FCC4F81476C4F870
:102E4000187630462B46BDE8F041002118474FF078
:102E500050230022C3F81426F3E700BF9FA0000010
:102E600073B5069CC4F30726304601F0DFFAE5B2DD
:102E70000146284605F047FC002201200A4BA40B1E
:102E800004F0FC041A51094BA84000938DF804206B
:102E900001F0FCFD304601F07DFC2946684601F05A
:102EA000F1FE02B070BD00BF80A002500070015062
:102EB0007FB52C4B01A90293002302A88DF80C309A
:102EC00001F0D8FE284B984248D101F045FC041E81
:102ED0000BDA9DF8041002A801F0D4FE012123466C
:102EE000224A234805F07DF835E040F60703214DDE
:102EF0008DF80540AE68ADF806307468019B14B9D2
:102F00006FF05704EAE7082128461B4AA047041E31
:102F1000E4DB3369002BF3D00122082128469847CF
:102F2000041EDBDB01209DF80430984001F0A8FD71
:102F30009DF805009DF804509DF8076005F0AAFB78
:102F40000146284605F0D3FB0C4BB60045F0004582
:102F50009D51002CC2D1204604B070BD6FF0120408
:102F6000BCE700BF007001500000AD0BA3A0000043
:102F700064930000A8900000812F000080A10250FF
:102F80002DE9F341144683681B690BB10022984771
:102F9000C4F30726304601F051FA0546304605F0E5
:102FA00079FB4FF00008E7B20146384605F0AFFB69
:102FB000104B220E920043F80280304601F036FAA0
:102FC0000D4A4FEA943C0CF0FC0C47F0004342F8E9
:102FD0000C300146384605F085FB084B05F13202FE
:102FE0000093304643460194520005F05DFB02B069
:102FF000BDE8F08180A1025080A00250612E000047
:10300000084B70B5C31A0D4607499B100446594337
:103010004022064805F03BF92B4601462046BDE814
:1030200070401847380F0020B76DDBB6589000008D
:10303000402373B50B4C0093041B0B460D460A4905
:10304000A41061430646094A094805F04BF9011EE0
:1030500005DA30462B4602B0BDE87040184702B092
:1030600070BD00BF380F0020B76DDBB64D83000088
:103070005890000010B5EFF31184202383F31288D9
:10308000BFF36F8F074A136823F00201DB0711605B
:1030900002D4012005F0F0FB84F31188BFF36F8F99
:1030A00010BD00BFD80F00202DE9F84300220121F8
:1030B00006460520FFF7F0FA114801F0F3FC114B2A
:1030C000984219D101F0FEFC00244FF01C090C2796
:1030D000DFF834803569414609FB045004F059FE9D
:1030E000002807DB012307FB04551C44042CAB67B5
:1030F000F0D10020BDE8F8836FF00400FAE700BFCC
:10310000053200000000AD0B849400001FB50022C2
:103110000123CDE902236B46084ACDF800D0CDF853
:1031200004D005F00CF9002805DB4FF480420023A1
:10313000684603F005F805B05DF804FB83830000E2
:103140000C22104B014602FB0033002030B4D3E9BF
:103150001C521867EFF31180202484F31288BFF308
:103160006F8F9C6F04F0C00444F002049C6780F3EE
:103170001188BFF36F8F1DB12B4630BC0248184732
:1031800030BC7047380F00205890000010B4EFF3A7
:103190001182202383F31288BFF36F8F17480168D1
:1031A00041F002040460C80707D482F31188BFF31A
:1031B0006F8F012010BC01F09DBC4FF05021D1F861
:1031C0000C04D1F80C14C907EFD5EFF3118083F389
:1031D0001288BFF36F8F0A498B6F03F0C00343F06F
:1031E00002038B6780F31188BFF36F8F82F311881E
:1031F000BFF36F8F002010BCFFF7A2BFD80F0020D5
:10320000380F0020062812D8DFE800F0040F111153
:10321000110D0B00064B986F10F0070007D1FFF758
:103220008FBF0220FBE70320F9E70120F7E7704793
:10323000380F00202DE9F041012207463649D1E838
:10324000EF3FC1E8E02F0028F9D133B933493448C2
:103250004B60CB608A6004F0AFFD7B1E012B2BD846
:10326000012F07D14FF05023D3F81C3403F0030390
:10327000022B21D005F0E3FC0546F8B9294B1B7859
:10328000E3B14FF0502302220646C3F808234FF063
:103290005024DFF89480D4F81824D4F81834D203DA
:1032A00015D503F00303022B01D0012F0FD16DB30D
:1032B00086F31188BFF36F8FBDE8F081EFF31186BD
:1032C000202383F31288BFF36F8F0125DFE7C5B199
:1032D000304604F082FFD4F81835DBB2012BDAD186
:1032E000D4F80421002AD6D00022C4F80421D4F84E
:1032F00004210222C4F818252022C8F88021A360E6
:10330000C9E70021212003F04BFAE4E74FF05023F6
:103310000222C3F80423CFE7340F0020240F00203B
:10332000540F00202413002000E100E008B50748F6
:1033300005F0E2FB38B10648FFF75AFC0448FDF7F8
:103340003BFE002008BD6FF01200FBE794900000E8
:10335000553300000A2838B50446074D04D1AB6840
:103360000D2128465B689847AB6803485B68E1B26B
:103370009847204638BD00BF94900000F0B54068E3
:1033800001F01F04057B87B044EA45140569002D50
:1033900063D0B2F5001F00F1100506D12146284682
:1033A00005F0FBFA002007B0F0BD0027B2F5800F52
:1033B00001AE0197776039D1B3F1007F14BF0523C7
:1033C00004238DF804300023CDE90463039383685C
:1033D00023FA01F111F001011AD1B2F1A07F17D146
:1033E00004F01F03620903F180032AD0012A3AD1B5
:1033F0001E4A52F82330DB070AD40DF10306324689
:103400002146284601F0AAFE194B98421BD002968D
:103410002146284603AA01F05DFD164B98421FD1B4
:1034200001222146284601F0FBFEBBE7B3F1C06F45
:1034300005D0B3F1007F14BF01230223C1E70323AA
:10344000BFE70D4AD5E73146284601F0E3FE094BB8
:103450009842DCD06FF00B00A5E76FF08500A2E783
:103460006FF015009FE751F82330FFDE00288450ED
:103470000400AD0B0000AD0B0025845038B5456845
:103480002B69B3B11035284601F0B4FE044680B96B
:103490000146284601F07CFE084B98420BD122469B
:1034A0002846074901F054FE224605210D20FFF76A
:1034B000F3F8002038BD6FF00400FBE70000AD0B0F
:1034C000C53400004209034670B502D0012A17D066
:1034D00070BD0D4E326951680029F9D0012503F005
:1034E0001F030C689D400029F2D08A682A4002D050
:1034F00030464B6898472CB1236821461C46F2E7BA
:10350000024EE7E72346F8E7809000006C90000049
:103510002DE9F04340F206354668D00648BF032047
:10352000337B02EA050558BFC2F3401087B001F0B3
:103530001F07B5F5837F144647EA43178DF803004C
:1035400044D00FD8062D18D007D8B5B1022D3FD0E2
:103550006FF0150007B0BDE8F083B5F5807FF7D1B7
:1035600001250AE040F20222954233D0B5F5407FB2
:1035700032D0B5F5007FEBD102250123220303FAF7
:1035800001F12BD573689960326972BB07F01F0394
:103590007F0928D0012F75D13C4A02EB830284F4C5
:1035A0008033D2F80012C3F30043C4F3404444EA2A
:1035B000430421F4706144EA800421F00F0144EADD
:1035C00005230B43C2F800320020C3E70725D4E7E8
:1035D0000425D2E70525D0E70325CEE7630344BFE2
:1035E0007368D960D0E72A4AD7E7103639463046A3
:1035F0000DF1020201F0B2FD14F4403F80460CD1FF
:103600003946304605F0C7F9224B9845DCD13046A3
:103610009DF8021001F0F8FDD6E74FF0000901AB6C
:103620003946304603AACDE90439CDE90199CDF8F0
:103630000C9001F04FFC174B984289D114F40033E1
:1036400015D09DF8033084F48034C4F300448DF821
:103650000E3039464B46304603AA8DF80C508DF893
:103660000D4001F0F3FC0B4B9842CDD070E7CDE953
:10367000043339460DF10303304603AA039301F0E6
:1036800029FCF0E7803352F82330FFDE0028845015
:10369000002584500000AD0B10B504460269A2B0AD
:1036A000C2F880001F49002001F0ECFE0022012139
:1036B0002A20FEF7F1FF64688422002101A805F0AA
:1036C00069FC6368B3F5803F04D30221164A1748AA
:1036D00004F07EFC2368B3F5803F04D30221144A32
:1036E000124804F075FC00230120219301AA6168AF
:1036F0000432D940C90744BF00FA03F142F8041C60
:103700002168D940C90748BF00FA03F103F101035A
:1037100048BFD163102BEAD101A801F0CBFE0020F5
:1037200022B010BD0D38000026A100003493000027
:1037300052A1000038B50F290C4605693CD84368F2
:103740001B68CB40DB0737D5D5F88430CB4003F07E
:1037500001031AB9EBB96FF077002CE0002BFAD116
:1037600055F8213023B90221154A164804F030FCDF
:10377000D5F8843013B92A20FEF75EFF0122D5F870
:103780008430A2401343C5F88430E0B201F0B2FEA9
:103790000AE0C8B201F0B6FE0122D5F88430A2409A
:1037A00023EA0203C5F88430D5F8843013B92A20FF
:1037B000FEF750FF002038BD6FF01500FBE700BF9B
:1037C0007EA100003493000038B505460C4622B1B6
:1037D00002210C4A0C4804F0FBFB0F2C0ED86B683E
:1037E0005B68E340DB0709D501230020A400E4B2B5
:1037F00004F1A04404F52834236038BD6FF01500AF
:10380000FBE700BFAEA100003493000070B5D1F813
:1038100080600F2804460D46736803D81B68C340B8
:10382000DA0704D402210E4A0E4804F0D1FBD5F881
:103830008430E340DB0704D402210B4A094804F03A
:10384000C7FB05EB840255F824503DB121463046B4
:10385000AC46BDE870400023126C604770BD00BFED
:10386000C9A1000034930000E5A10000036803F043
:103870001F025B09026004D0012B034818BF00201F
:1038800070470248704700BF0028845000258450CC
:103890002DE9F04F1546834640F2FF18DFF8889176
:1038A000DFF888A185B000EB8101594503D10020E4
:1038B00005B0BDE8F08FDBF80030C3F3C322082A5F
:1038C000C3F3080400F2AA801B0E444508BF4FF062
:1038D000FF3419F80270222B00F2A380DFE803F016
:1038E00012191F22252B22A1A1A1A13A67A1A1A1F2
:1038F000A1A1A1A1A1A16A7F8285A1A1A1888F9286
:1039000095989B00C5F80C45601C5DD10BF1040B2C
:10391000CBE7C5F81445621CF8D000265DE0C5F879
:103920000845F1E7C5F81045F5E7631CC5F80845FB
:10393000ECD0002604E0661CC5F80C45E6D0012654
:1039400003A80394FFF792FF0122039B02FA03F3FB
:10395000C36008E0C5F80845002FDCD1631CD5D052
:10396000002606273246DBF80030039403F40040BB
:10397000002818BF002203A818BF01260193009257
:10398000FFF774FF039C019B00EB8400D0F800421A
:10399000C3F3412C009A3B0243EA8C03134304EA2D
:1039A0000A04234343EA4603C0F80032AEE7C5F8F1
:1039B0000C45D1E7C5F86045601CDBF80030A5D0A8
:1039C000C3F30043002BBAD0012603A80394FFF7EA
:1039D0004DFF039B06FA03F383603246C3E7C5F845
:1039E0006445E9E7C5F86845E6E7C5F86C45E3E7EF
:1039F000C5F82445621C89D001260022B3E7C5F82A
:103A0000284581E7C5F83045F4E7C5F83445F1E7C6
:103A1000C5F83845EEE7C5F83C4575E76FF0150089
:103A200046E76FF0850043E71BA20000F0F0FCFFC3
:103A30002DE9F04104460D46476805F000F94FF0C6
:103A4000200888B9264B1B7873B16426606804F09F
:103A500027FDF0B9012004F043FE013EF6D100211C
:103A6000212002F09DFEF0E7EFF31186314688F346
:103A70001288BFF36F8F606804F012FDA8B986F357
:103A80001188BFF36F8FEFE786F31188BFF36F8F55
:103A9000E5E7EFF31186314688F31288BFF36F8FA5
:103AA000606804F0FDFC0028EED0FB6900201D706A
:103AB0006368FA691B68C3F844250122C3F84825E6
:103AC000C3F82001D3F82041C3F85801D3F85801B6
:103AD0009A6081F31188BFF36F8FBDE8F08100BF5A
:103AE00024130020F7B50546002201210820FEF727
:103AF000D3FD0820FEF7A0FD6B681A691868C0F8AE
:103B00002425997D5A7D0A43198B1B7D0B43134352
:103B1000C0F86C356E68D6E9004313F0010350D04D
:103B20002F6907F1080000F0B7FF334B984208D027
:103B300032480121324A04F04BFA6FF0040003B01E
:103B4000F0BD387A04F10C0204F5907104F0D4FD54
:103B5000387A012707FA00F000F092FF0823C4F832
:103B60000035F369C4F844350023C4F84835A7602C
:103B7000D4F85831002BFBD00021C4F800156B6835
:103B800001AADC68204604F05EFC002805DB019BEE
:103B9000226819791868FFF77BFE08216A681368A4
:103BA000C3F80015117A51B9126AC3F834250122FD
:103BB000C3F83825C3F81011D3F810111A6000208B
:103BC000BDE70822C4F80025F269C4F84425C4F80A
:103BD00048350123A360D4F82031002BFBD000230B
:103BE000C4F82031D4F820310123E3604FF480730E
:103BF000C4F80433BCE700BF0000AD0B6C930000B9
:103C000024A200002DE9F0474568D0F81080064650
:103C10000021E86B00AF04F093FC041E11DB296C5B
:103C2000481C1AD005F1440000F066FB10F1130F98
:103C300004460AD10121334A334804F062FC6FF094
:103C400012042046BD46BDE8F087411D05D1012183
:103C50002E4A2D4804F055FCF3E74FF001096B6B39
:103C60009847D8F80850D8E9023203EBC2039D42C6
:103C70000AD3404604F0A7FC73680021D86B04F017
:103C80005FFC00EAE074DCE7286804F035FF0346D7
:103C9000B0B92A686C468AB0106829796A46D16141
:103CA0004FF400711A4D11841A49C2E9055042F8C7
:103CB000101F4FF411511448FDF744FDA546BEE70F
:103CC00028682979EB88D0F810C0DA07DCF80040C2
:103CD00054BF43F4B01383F4D01323F4801209FAD1
:103CE00001FEDB07D0F808A04CBF4EEA040424EA2A
:103CF0000E04CCF80040DAF800309847041EA0DB30
:103D00000835B0E75DA200005C93000088A20000C7
:103D1000A5A20000040000012DE9FF410569064647
:103D2000D0F80480A86C2B6D002835D1002B53D01F
:103D3000B8F838406A6C9C4228BF1C46EF6CEB6CAC
:103D400053B1296D41B107F06041B1F1005F03D07B
:103D5000082C28BF08246F6E00926A6CAC651AB1FB
:103D6000AA6C002A18BF2246CDE901271BB12B6D92
:103D7000002B18BF2346002269464046039301F0FA
:103D800057FE184B984229D06FF00401304604B01A
:103D9000BDE8F04104F039BC696CEF6C0A46B8F834
:103DA0003840ABB1834228BF03469C4228BF1C4623
:103DB0000029C4D001F06043B3F1005FBFD0082CEC
:103DC00028BF0824286E224605F0D7F82A6EB6E7E9
:103DD000844228BF0446EBE71946D7E704B0BDE8A4
:103DE000F08100BF0000AD0B10B502780346002A39
:103DF0005FD10C69A26D32B9606D6FF07301BDE8DF
:103E0000104004F002BCE06C40B1216D31B1DB68C0
:103E100023B1834202D0616E05F0AFF8A36CA26DAE
:103E200033B19A4213D90121224A234804F069FB95
:103E3000236DA26D33B19A4222D901211D4A1E4839
:103E400004F05FFB606DBDE81040FFF765BF9B1A93
:103E5000A3647BB9636B04F1480208336363A36B0B
:103E600004F13801013BA36304F1340004F055FB75
:103E70006064DDE7636C002BDAD013446364D7E73A
:103E80009B1A23657BB9E36B04F150020833E363AB
:103E9000236C04F14001013B236404F13C0004F075
:103EA0003CFBE064CEE7E36C002BCBD01344E3642F
:103EB000C8E710BDC9A200005C9300002DE9F04FD7
:103EC0008FB000AFC7E90232436889467B608B88B8
:103ED00080469904046932D44FF0FF324FF0FF332B
:103EE00004F1100002F02CF9C4F80490D8F810A0E6
:103EF000D8F804B09AF85D30DBF808C023B1DAF8DE
:103F00000030994500F0EA80B9F804E01EF400633F
:103F10001CD00121B24AB34804F0F3FA6FF08505D2
:103F200023689B8813F4005304D1636004F11000EC
:103F300002F0E2F828463C37BD46BDE8F08FA369A1
:103F4000002BC9D163689945C6D1CFE71EF0010F98
:103F500016D06D4688B0D8F800106A46A248C2E96B
:103F600005014FF400719183A04942F8101F4FF4EE
:103F7000E2519C48FDF7E6FBAD466FF01505CFE733
:103F80001EF0080F05D09A4A0121964804F0B9FAAC
:103F9000F3E7CEF34513082B01D0964AF4E7D9F89E
:103FA00000303B603A68944B9A4201D8934AEBE761
:103FB000934B9C4507D94FF05022D2F8582512F068
:103FC000030F18BF9C4607F110050BF10C060FCE2E
:103FD0000FC50FCE0FC53B6896E80300634528BFA9
:103FE00063469C46874B85E803009C4517D2844B6B
:103FF0009C4514D2844B9C4511D2844B9C454FD890
:10400000834B9C454ED8834B9C454DD8824B9C4559
:104010004CD88249824B834A8C4588BF13461EF098
:10402000020F7B620EF0040342D0002B14BF032367
:10403000022387F82830CEF3001387F82930DBF805
:1040400000301EF0020FD3F80825CEF340014FEAEE
:10405000521302F01F0231D173B3012B40F02781BC
:10406000714901239340CB609AF85D302BB15846DB
:1040700001F096FC00238AF85D3043466B4A5846AF
:1040800007F1100101F058FC694A0346904220D024
:104090000121684A534803F0A4FF6FF004053FE78D
:1040A000654BBCE7654BBAE7654BB8E7654BB6E7D0
:1040B000003B18BF0123BCE76349D2E73BB1012BAA
:1040C00040F0F7805849012393408B60CCE75E496C
:1040D000F9E70123CAF800908AF85D30012384F8DB
:1040E0005C307B68196C4A1C0AD003F1440004F070
:1040F0009DFA743004D10221544A3A4804F001FA7E
:10410000FB68002B40F0A68063630023A36304F1E7
:10411000480204F1380104F1340004F0FEF9BB68F0
:104120006064002B40F09F80E3630023236404F16C
:10413000500204F1400104F13C0004F0EEF90025C6
:1041400001212A46E0642563204604F01CFA40461B
:10415000FFF7E2FD2A462B46A06B834240F08C809D
:1041600000231946256CA94240F08D80934238BF48
:10417000134626464FF4FA5202FB03F556F8203B4D
:104180004FF4004C1B6840F2E730B5FBF3F500211B
:10419000C8354FF47A720023E5FB0C01FBF7DAFF18
:1041A00002460B46304601F0CBFF0246002871D094
:1041B0000121274A0B4804F0A4F900257868A56579
:1041C00001F0EEFB6FF07301404684F85D5004F09F
:1041D0001CFA304601F0DAFF6FF07305A0E600BF6D
:1041E000E7A200005C93000001A3000003000001AF
:1041F00023A3000042A3000047E8010071A30000D0
:104200000024F4000048E80100127A00FF083D0095
:104210007F841E003F420F001FA107008FD00300C4
:1042200048E8010090D0030000288450E93D0000D8
:104230000000AD0BA2A3000000093D0080841E0019
:1042400040420F0020A1070000258450C9A30000B0
:10425000F3A30000FB681B686363002B3FF455AFBA
:10426000FB685B6852E7BB681B68E363002B3FF4A5
:104270005CAFBB685B6859E7616B01EBC3014968E0
:1042800001330A4469E7E06B00EBC100406801318B
:10429000034468E7256B15F1740F8ED0002D3FF4B1
:1042A0003FAE0146D8F8100004F06DF938E6C96059
:1042B000FFDE00239B60FBE700F01F0240090DD0EA
:1042C00001280DD1094B03EB8203D3F80002084A01
:1042D000024042EA8102C3F800227047054BF2E730
:1042E0000023803253F82230FFDE00BF00288450C4
:1042F000F0F0FCFF002584500123F0B587B08DF865
:104300000230022300248DF804306B4403930F46DF
:1043100001AB0DF10301049305460291059400F0F1
:1043200079FF0C4B064698420FD13946284603AA1E
:1043300000F0D0FDB0420BD028469DF8031000F0ED
:1043400063FF6FF0040007B0F0BD6FF01200FAE7F2
:104350002046F8E70000AD0B0123834070B5DC4335
:104360000B4AD2E8EF1F01EA0405C2E8E65F002E1F
:10437000F7D14FF4803282400648C0F80823BFF3DB
:104380005F8FBFF36F8F0B4214BF0120002070BD01
:10439000901000200050015070B40E4922F07F466A
:1043A000D1E90034D01AC31844F10004C1E9003443
:1043B000A6F50013B3F5400F09D2074B1B681A0A84
:1043C0001B069C19054B42F10005C3E9004570BC72
:1043D00002F06ABBC007002094100020C80700202C
:1043E000D9B101230D4A8340D2E8EFCF4CEA030C48
:1043F000C2E8E1CF0029F7D14FF48033084A834067
:10440000C2F80433074BD3E8AF3FC340DB0742BFDA
:104410004FF40012044BC3F80021704790100020A5
:10442000005001508810002000E100E0C3B20248B3
:104430009B001844704700BF40510150024B00F5EB
:10444000A87053F820007047005001500D4B1868B9
:10445000010A0006BFF35F8F0B4BD3F80435181821
:1044600041F10001B3F5801F0AD2084BD3E90023C4
:10447000904271EB030303D210F1807041F100010F
:10448000704700BF9410002000500150C807002062
:104490002DE9F04F85B016461F4604469DF840A012
:1044A000FFF75AFF0190FFF7D1FFB04271EB07030E
:1044B00052D23B4B301A67EB0101984271F1000177
:1044C0004DD2384B03EB0413D3E902239F4208BFBC
:1044D000964258D04FF48038334908FA04F8204601
:1044E00026F07F4BC1F8488304F0C8F84FF0030969
:1044F000584604F15005AD00ADB205F1502504F564
:10450000A87305F580350293029A20F07F4341F8A5
:104510002230C1F84483D1F80435244AC01A033844
:1045200020F07F4090422ED9286868B1D1F8043538
:10453000A3EB0B0020F07F40B0F5000F039322D9CE
:10454000204604F09BF8039BBAF1000F07D109EB5A
:10455000030009F10109D7E7BAF1000F09D06FF0A4
:10456000150520460199FFF73BFF284605B0BDE839
:10457000F08F01230E4AA340D2E8EF0F1843C2E8A0
:10458000E10F0029F8D107490E982301C8500F9B6D
:1045900001EB04120025C2E902675360E1E700BFA6
:1045A00001008000A007002000500150FDFF7F00A7
:1045B000881000207FB500254FF0FF304FF0FF310D
:1045C0004FF480321C4C1D4B0226C4F80833C4F84B
:1045D00048331B4BC4F80855C3E90201C4F804234F
:1045E000C3E906014FF400334FF40012C4F804335A
:1045F000144B0121C4F804631520C3F880212A4616
:10460000FEF74AF81520FEF717F801230322A360EE
:1046100023600D4B28461A600C4B0D4A1E600D4B53
:10462000CDE9015500930023FFF732FF3046FEF736
:1046300001FE284604B070BD0050015003000F0079
:10464000A007002000E100E0901000208C10002066
:10465000FFFF7F00994300002DE9F04F394B85B0F3
:10466000D3F8042392070BD5D3F8042142B10022DA
:10467000C3F80421344AD3F80431136801331360BA
:10468000324D0024A8464FF480362E4FD7F804331D
:1046900006FA04F919EA030F2ED00123A340DB43E5
:1046A0002B49D1E8EF2F02EA0300C1E8EC0FBCF17F
:1046B000000FF6D122FA04F3DB0703D4254B53F89D
:1046C0002430CBB1204603F0D9FFFFF7BFFEEFF354
:1046D00011832022029382F31288BFF36F8F08EBBD
:1046E000041CDCE902AB504571EB0B010BD2029BC1
:1046F00083F31188BFF36F8F103514B105B0BDE897
:10470000F08F0124C2E70020D5E900134FF0FF32FB
:1047100003934FF0FF3328600A48CCE90223C0F826
:104720004893204603F0AAFF029B83F31188BFF34E
:104730006F8F0029E0D0039B524600935B46884769
:10474000DAE700BF0050015094100020A0070020BD
:10475000881000204051015070B501240C4B18689E
:1047600090B1B0FA80F0C0F11F0004FA00F1C94323
:10477000D3E8EF2F02EA0105C3E8E65F002EF7D188
:10478000C240D207EBD570BD6FF00B00FBE700BF56
:104790008C1000200123054A8340D2E8EF0F184314
:1047A000C2E8E10F0029F8D1704700BF8C1000204B
:1047B00030B5431C124C85B005D08442A8BF0446D6
:1047C000012CB8BF0124FFF741FE0E4B0C4DD3E97D
:1047D0000013401AB0F5000F0FD22218AA4228BFCA
:1047E0002A46002052180849CDE90100009143F102
:1047F0000003FFF74DFE05B030BD2A46F1E700BFCC
:10480000FFFF7F00C00700209943000008B5FFF7B5
:104810001DFE024B1B68C01A08BD00BFC007002068
:104820004FF47F03D3F83021D3F83431072A05D170
:10483000023B032B02D8024AD05C7047002070472D
:1048400041A4000008B5FFF7EBFF58B1644BD3F863
:10485000202A3AB90D21C3F8201A0121C3F81C19E6
:10486000C3F81C290022D30003F57F03D3F80013FB
:10487000013107D0D3F800130132D3F80433202AD2
:104880000B60F0D1FFF7CCFF002840F0A080FFF7CD
:10489000C7FF40B1534B544AC3F830254FF0502363
:1048A0000122C3F858254FF47F03D3F83021D3F801
:1048B0003431072A09D1023B032B06D84B4AD35C7B
:1048C0001BB100224A4BC3F84C25FFF7A9FF50B19A
:1048D0004FF05023D3F80024D10742BF0022C3F881
:1048E0001421C3F818214FF47F03D3F83021D3F8F3
:1048F0003431072A09D14FF05023D3F80024D207CE
:1049000044BF6FF00102C3F80024FFF789FF18B11C
:104910006522334BC3F80C274FF47F03D3F83021C3
:10492000D3F83431072A16D1314BD3F82034002B79
:1049300011DA4FF050230322C3F8182501229A60A0
:10494000D3F80421002AFBD00022C3F8042101225D
:10495000DA60C3F818254FF47F03D3F83021D3F879
:104960003431072A23D1023B032B02D8214AD35CDE
:10497000EBB17E221A4B1B49C3F80C27C3F83C2924
:104980007F231D4AC2F818310023C1F8043EC1F844
:10499000083E01F54821C1F81031C2F82431C2F8AF
:1049A0002C3102F5FF1202F58052C2F8A032134AF0
:1049B000D2F88C3043F44063C2F88C30104A114B6B
:1049C0001168C3F84415D269C3F84C2508BD2922E3
:1049D000034BC3F80C270322C3F83C2757E700BF5B
:1049E00000400050009003504400EFBE3DA4000082
:1049F0000020035039A400000020005000ED00E02A
:104A00000080FF000060005030B50468ACB1B4FA1B
:104A100084F30122C3F11F03DBB29A4024EA0202AD
:104A2000D0E8EF5FA54204D1C0E8EC2FBCF1000F45
:104A3000F6D1EAD102480B7030BD0248FCE700BF56
:104A40000000AD0B0200AD0B10B50368CB40DB07D7
:104A500010D401238B40026843EA0201D0E8EF4FF3
:104A6000944204D1C0E8EC1FBCF1000FF6D1F2D1A2
:104A7000014810BD0148FCE70000AD0B0400AD0B80
:104A8000014BC3F80405704700700150014BC3F897
:104A900008057047007001500146014800F0EAB86F
:104AA00030010020044B1A7922B9012218601A71D2
:104AB0000248704702487047981000200000AD0B74
:104AC0000C00AD0B08B50A4B1B6833B10520FDF790
:104AD000D5FD10B90520FDF7AFFD4FF050230122A1
:104AE000C3F81825C3F81425C3F8802508BD00BFF6
:104AF0009810002010B5032845D8DFE800F0180210
:104B0000554F00224FF480730121002003F1502300
:104B100018601C68012402F150221460284A1268AF
:104B2000002A47D04FF05023C3F804132BE04FF076
:104B30005023D3F81814D3F81824C90312D502F05F
:104B40000303022B05D0012B02D0002003F0E3FD6C
:104B500001234FF050220221C2F8183508224FF4E9
:104B60008273D2E7D3F81424D207F1D5D3F81C24EA
:104B700002F00302013A012AE7D8114A12681AB179
:104B80000222C3F8042310BDD3F80421002AFBD06D
:104B90000022C3F80421D3F80431F4E718224FF4BB
:104BA00090734FF48071B0E720224FF492734FF46A
:104BB0000071AAE71A68002AFCD018601B68E2E7B7
:104BC000981000204FF0502310B5D3F8002152B1B7
:104BD0000020C3F80001D3F800210122C3F8082304
:104BE000234B1B6898474FF05023D3F8042182B120
:104BF0000022C3F80421D3F80421D3F81824D3F8F1
:104C00001824022102F00302012A28D1C3F8181542
:104C10009A604FF05023D3F8202162B10022C3F8EC
:104C20002021D3F820214FF48072C3F80823104BC1
:104C300005201B6898474FF05023D3F82421AAB1D0
:104C40000022C3F82421D3F824214FF40072C3F8C2
:104C50000823074B0620BDE810401B681847C3F81F
:104C60000813034B01201B689847D2E710BD00BF13
:104C7000981000200079024B03EB0010FFF7C4BE30
:104C8000380100200123027900688B40C0F8083504
:104C9000024800EB0210FFF7D7BE00BF380100202A
:104CA000036803F01F025B09026004D0012B034874
:104CB00018BF002070470248704700BF002884508A
:104CC00000258450034A4309D35C00F01F001844B8
:104CD000C0B2704745A4000070B50546FFF7F2FF6B
:104CE0000C4C083034F810300E46DA0508D5C3F302
:104CF000432304EBC302284654F8333052689847E4
:104D0000A3682BB131462846E268BDE870401847D9
:104D100070BD00BF4801002008B5FFF7D3FF034B6B
:104D2000083033F81000400B08BD00BF48010020D8
:104D300008B5FFF7C7FF034B083033F81000C0F386
:104D4000400008BD4801002008B5FFF7BBFF034B3A
:104D5000083033F81000C0F3401008BD48010020AF
:104D6000034611F0010010B5CCB20BD1A207C4F379
:104D700040000DD5074A106A58601062003818BF0D
:104D8000012005E004490A6A1A600A62002AEDD08F
:104D900010BD00BF002884500025845010B5FFF7D7
:104DA00091FF124A083032F81030D9051CD5C3F3F0
:104DB000432123F4F85322F81030002002F10E04AE
:104DC00034F8023F13F4807F03D0C3F343239942A6
:104DD0000AD001303028F3D1002342F831300448A2
:104DE000BDE81040FFF730BE10BD00BF48010020F5
:104DF000C0010020F0B50546002001260446074604
:104E00008C420BD1114BD3F87C2132B10022C3F874
:104E10007C21D3F87C3140F00040F0BDE3B29B0030
:104E200003F580729B0806FA03F31D420BD002F1D2
:104E3000A04202F55042D2F800C0BCF1000F02D0EF
:104E40001760126818430134DAE700BF00D0005041
:104E5000F7B506460846FFF735FF1A4F00F108057B
:104E600037F815300C46DB072AD5304603F06FFDC6
:104E70002046FFF769FF58B12046FFF74DFF00229B
:104E8000316800B201EB8003C3F81025C3F8102588
:104E90002046FFF783FF002301A827F8153001946F
:104EA000FFF7FEFE019B00EB8300D0F80022064BCB
:104EB000134043F00203C0F80032044803B0F0BDD1
:104EC0000348FBE748010020F0F0FCFF0000AD0BB9
:104ED0000400AD0B2DE9F0431646804685B0084628
:104EE000FFF7F0FE0D463168044609B32846FFF788
:104EF0001FFF18B12846FFF727FF10BB00230DF155
:104F00000F02CDE900338DF80E308DF80F302846B2
:104F10000B460DF10E0103F0B1FC484A04F1080103
:104F200032F8113023F0020343F0010322F811306C
:104F300073687BB328461F785968FFF7F9FE10B1F4
:104F4000E9B13F4829E03D4A04F1080032F8103049
:104F500023F02003DB04DB0C22F8103079B1032F9F
:104F6000EFD87168D1F804E0D8F800109EF800C0BE
:104F700001EB8C01A7B9C1F81075C1F810752F4A63
:104F800004F1080132F8113023F01C0343EA8703CF
:104F900022F81130B3683BBB2A4805B0BDE8F08366
:104FA000D1F810E543EA4C332EF0030EC1F810E5BA
:104FB000D8F8001043F0200301EB8C0EDEF810153A
:104FC00022F8103021F44F3121F44071CEF8101541
:104FD0002902DEF8108501F47C5141EA074141EADB
:104FE0000801CEF81015CAE72846D3E90067FFF795
:104FF000D5FE002ED0D0114DD5E90023964203D125
:105000009F4201D1002209E00F480DF10F01FFF787
:10501000FBFC0C4B9842C0D19DF80F2005EBC2035E
:1050200008345F6035F8143045F8326043EA4223B3
:1050300043F4807325F81430AEE700BF4801002028
:105040000400AD0B0000AD0BC00100202DE9F043C2
:105050000C46804685B0204611461D46FFF732FEBD
:10506000064629B32046FFF763FE18B92046FFF72E
:105070006BFE18BB334F06F1080937F8193013F0EF
:105080001C0F02D04B78012B18D001238DF80F3064
:1050900000234A1CCDE9001320468B1C0DF10F01A3
:1050A00003F0ECFB37F8193043F0030327F819300D
:1050B000002D44D02046FFF73BFE18B9224805B02A
:1050C000BDE8F083002295F800C0D8F800301D4FED
:1050D00003EB8C03C3F81025C3F8102506F1080272
:1050E00037F812104FEA8C0E21F02001C904C90CC8
:1050F00027F812106E7816B3D8F80000AD78704417
:10510000D0F81035360423F4991323F4F853C0F87B
:105110001035230203F47C5306F440362D05D0F8F5
:1051200010E5334305F480152B4341EA4C3143EA43
:105130000E0341F02001C0F8103527F81210034883
:10514000BDE700BF480100200400AD0B0000AD0B1F
:10515000014BC3E9021270474801002010B5084610
:105160001446FFF7F1FD50B10846FFF7ABFD054BC4
:10517000083033F8103004485B0B237010BD03482F
:10518000FCE700BF480100200000AD0B0400AD0BA0
:1051900070B5154D064695F880401CBB214660222F
:1051A00005F1100003F0F6FE214630682E6F8E42A6
:1051B0000ED10023C0F87C31D0F87C3140F30730A9
:1051C000FDF73AFA0123094885F88030AB6770BDD6
:1051D000CBB29B0003F580727C2B04BF84508358B4
:1051E0000131E4E70248F2E7480100200000AD0B7E
:1051F0000C00AD0B034B93F88000003818BF012062
:10520000704700BF480100200148FFF71DBC00BFE8
:10521000BC0100200148FFF7F7BB00BFBC01002024
:1052200073B503681646D3F804230546002AA8BFC1
:105230004FF000420846A8BFC3F804230C46FFF70E
:1052400083FD00B30846FFF773FD0146D8B9204639
:10525000FFF762FD04B2A4000346286804F58072DB
:105260008150296882582144D1F8102542F001026A
:10527000C1F810252EB10122296802FA03F3C1F802
:10528000043302B070BD2046FFF71CFD0E4B083002
:1052900033F81030C3F38203042B11D0052B11D047
:1052A00001A80194FFF7FCFC019A0369D34003F0C5
:1052B0000103991C204602B0BDE8704003F027BBF3
:1052C0000321F7E70221F5E7480100202DE9F04F1F
:1052D000684BDFF8A481D3F80403D8F87010C0B28B
:1052E00089B040F00040FFF785FD051E2FDAC24669
:1052F00000235AF87C1F06A8CDE90633FFF730FDDE
:105300004FF0000B5D4B0DF118090193019A12F853
:10531000013B0192DA081AF8022003F0070322FA8F
:1053200003F3DA071CD409F10409BBF1000F14D010
:10533000D8F870104FF00040FFF75CFDD8F87C10F3
:1053400006A8FFF70DFD0028DAD125F0004501245D
:10535000002D76D109B0BDE8F08F4FF0010BD5E7F5
:10536000474B5B440293D9F800100029DBD091FA37
:10537000A1F1B1FA81F1029B1C7841EA4414204664
:10538000FFF7A0FC083038F81070C808BB0803937A
:10539000012319F8002001F0070103FA01F122EAC4
:1053A000010209F8002005A80594FFF779FC059A89
:1053B000039B803250F82220C7F382065B073746F2
:1053C000C2F3014222D520463946D6B2FFF784FC0B
:1053D00005A80594FFF764FC059B803350F8233043
:1053E000C3F301439E4207D10021204603F08FFA08
:1053F0003146204603F08BFA05A80594FFF750FCD0
:105400000122059B02FA03F30362ACE7022A0CD1E6
:105410000321204603F07BFA06F00503012BEBD1B4
:1054200039462046FFF758FCE6E702212046039262
:1054300003F06DFA032EF3D0039A032ADCD1022E77
:10544000EDE795FAA5F3B3FA83F304FA03F29B00B0
:1054500003F1A04303F55043D3F81005D3F810151A
:10546000C0F30520C1F3014125EA0205FFF734FC32
:105470006EE700BF00D000504801002055A4000096
:1054800055A4000070B5084C0E462379154643B963
:105490002A20FDF7D1F80123044823712660A56076
:1054A00070BD0348FCE700BFA01000200000AD0B5A
:1054B0000C00AD0B002330B50D4A50F8234003F526
:1054C000A2710133102B42F82140F6D10023084A83
:1054D00000F13C0103F5B27451F8045F0133102B65
:1054E00042F82450F6D1D0F88030C2F8043330BDF1
:1054F00000A002500123024A8340C2F804337047DF
:1055000000A002500123024A8340C2F808337047CA
:1055100000A00250F8B5012600270B4B0B4DD3F825
:105520000C4304B9F8BD94FAA4F0B0FA80F006FA7E
:1055300000F324EA0304064B82009F502B68002BE3
:10554000EFD0A9689847ECE700A00250A010002017
:1055500000A10250036803F01F025B09026004D03F
:10556000012B034818BF002070470248704700BF56
:1055700000288450002584504B69304A93424BD018
:105580000DD82F4A934247D007D82E4A934243D092
:105590002D4A934240D02D4870472D4AF9E72D4AB5
:1055A000934208D004D82C4A934235D02B4AF0E7D6
:1055B0002B4A9342EFD10279002A3CD091F8232064
:1055C0001AB191F82420002A33D10068254A90426C
:1055D0002FD1234A93422CD10B685A1C01D0082B9F
:1055E000D9D14B68581C01D0092BD4D18B685A1CD7
:1055F00001D00A2BCFD191F8213023B1CB68581CB0
:1056000001D00B2BC7D1CB6917485A1C15D00F4AB4
:105610000C2B18BF1046704791F8212012B1CA68B0
:105620000132C8D1CA690132C5D191F82320002ABC
:10563000C7D10D4870470D487047704780841E00E1
:1056400020A1070048E8010090D003000400AD0B42
:1056500040420F000024F40000093D0000127A00CF
:105660000048E80100A000500000AD0B0300AD0BA6
:1056700073B51646421C1C460546069B18D00129E8
:1056800002D1BBB103F0E1F901A80195FFF762FF78
:10569000019B240200EB8300D0F80022074B44EA70
:1056A00086040C4313401C4344EA4101C0F8001235
:1056B00002B070BD03F0D5F9E6E700BFF0F0FCFFE3
:1056C0002DE9F04F874B4D6906469D420C4690F8F8
:1056D000049085B000F0CE8000F2BE80824B9D42E7
:1056E00000F0CB8000F2B080804B9D4200F0C8807B
:1056F0007F4B9D420CBF4FF080654FF080452422C8
:105700007C4F94F8230002FB0973997F60F300013A
:1057100099773379217C02FB03739A7F61F341020D
:105720009A7794F82380B8F1000F34D16269724BF4
:1057300001219A420CBF4FF0030A4FF0000A237E6A
:105740004246012B94BF0023012300932068534657
:10575000FFF78EFFCDF80080534642460121606876
:10576000FFF786FFCDF8008053464146A27EA06831
:10577000FFF77EFF237C424683F001030093012163
:105780005346E068FFF774FF0121009153464246FB
:10579000E069FFF76DFF3379002B7AD094F8213060
:1057A000002B76D024234FF0FF3203FB09731A62DB
:1057B000A36894F812900293E369227E94F819800A
:1057C000D4F80CE094F810C094F822000393D4E9C4
:1057D00000BA3379002B7AD094F8201094F8244042
:1057E00033687CB9029CC3F808B5C3F80CA5C3F8AC
:1057F0001045039CC3F86C45C3F814E5C3F868C5AD
:10580000C3F86405B8F1000018BF0120022AC3F8EC
:10581000C095C3F824555CD0032A5DD0012A01D17C
:1058200040F002002422C3F85405C3F86015337910
:105830005343FB58002B52D0306840F3073005B07B
:10584000BDE8F04FFCF7F8BE2C4B9D420CBF4FF06B
:1058500080554FF0804552E7294B9D4213D0264B8F
:105860009D4213D0274B9D420CBF4FF000454FF097
:10587000804544E74FF0005541E74FF000653EE7B3
:105880004FF000753BE74FF0206538E74FF0A0552B
:1058900035E7242202FB0979E3684FF0000CC9F8D0
:1058A0002030227C99F81E304FF0FF3E62F3410316
:1058B00089F81E30A3680220D4E900BA0293E36994
:1058C00094F81290227E94F81980039381E70221C4
:1058D00084E740F00400A5E740F00600A2E705B029
:1058E000BDE8F08F80841E0020A1070048E8010079
:1058F00090D00300AC1000200048E80140420F00A7
:105900000024F40000127A00431C07B50ED0019069
:1059100001A8FFF71FFE019B00EB8300D0F80022D7
:10592000044B134043F00203C0F8003203B05DF8AB
:1059300004FB00BFF0F0FCFF2DE9F047242590F8B0
:105940000490144C05FB09F504EB050A1F469AF870
:105950001C3006469046D3B961B96251CAF804704A
:10596000242303FB09440023637701230A48237798
:10597000BDE8F087FFF700FE074B9842F8D13046AC
:1059800044F80580CAF80470FFF79AFEE8E7034878
:10599000EEE700BFAC1000200000AD0B0C00AD0B1B
:1059A0002DE9F0410446067900681F4D40F30730A9
:1059B000FCF750FE24237343EB5853B123681B4A72
:1059C00006EBC601C3F80823206805EB810103F04C
:1059D00054F8242101FB06512368D3F80805D3F8B5
:1059E0000C75D3F810858B7FDB0716D4FFF78CFF7F
:1059F0004046FFF789FF3846FFF786FF086AFFF742
:105A000083FF23794BB12368D3F86C05D3F81415C1
:105A1000FFF77AFF0846FFF777FF242303FB0655BD
:105A200000232B77BDE8F081AC1000205201080064
:105A300024232DE9F0430779534D7B439046EA1820
:105A40000E46517F814685B0002940F09B80EB587F
:105A500023B118F0140F04BF01235377242496E8D0
:105A60000F0004FB075404F10C0C8CE80F00206AB3
:105A7000421C04D0A37F9B071AD502F0E6FF3368CF
:105A8000D9F8004023B103F06043B3F1005F06D1C1
:105A9000B36883B103F06043B3F1005F0BD02423FC
:105AA000002203FB075339485A7705B0BDE8F0835D
:105AB00002F0D7FFE3E718F0010318BF0123C4F891
:105AC000503518F0020318BF0123EC46C4F84035E6
:105AD00096E80F008CE80F00039BC4F84405C4F857
