:10000000902600205D29000065910000492900002C
:100010004929000049290000492900004929000018
:10002000000000000000000000000000092B00009C
:100030004929000000000000C92A000049290000E9
:10004000912C0000912C0000912C0000912C0000BC
:10005000912C0000912C0000912C0000912C0000AC
:10006000912C0000912C0000912C0000912C00009C
:10007000912C0000912C0000912C0000912C00008C
:10008000912C0000912C0000912C0000912C00007C
:10009000912C0000912C0000912C0000912C00006C
:1000A000912C0000912C0000912C0000912C00005C
:1000B000912C0000912C0000912C0000912C00004C
:1000C000912C0000912C0000912C0000912C00003C
:1000D000912C0000912C0000912C0000912C00002C
:1000E000912C0000912C0000912C0000912C00001C
:1000F000912C0000912C0000912C0000912C00000C
:10010000912C0000912C0000912C0000912C0000FB
:10011000912C0000912C0000912C0000912C0000EB
:10012000912C0000912C0000912C0000912C0000DB
:10013000912C0000912C0000912C0000912C0000CB
:10014000912C0000912C0000912C0000912C0000BB
:04015000912C0000EE
:100154004FF0FF0C1CEAD0521EBF1CEAD15392EAA6
:100164000C0F93EA0C0F6FD01A4480EA010C400282
:1001740018BF5FEA41211ED04FF0006343EA5010DC
:1001840043EA5111A0FB01310CF00040B1F5000F1E
:100194003EBF490041EAD3715B0040EA010062F1CD
:1001A4007F02FD2A1DD8B3F1004F40EBC25008BFB7
:1001B40020F00100704790F0000F0CF0004C08BFD5
:1001C40049024CEA502040EA51207F3AC2BFD2F1A2
:1001D400FF0340EAC250704740F400004FF00003B0
:1001E400013A5DDC12F1190FDCBF00F000407047EA
:1001F400C2F10002410021FA02F1C2F1200200FA28
:1002040002FC5FEA310040F1000053EA4C0308BFEE
:1002140020EADC70704792F0000F00F0004C02BF3F
:10022400400010F4000F013AF9D040EA0C0093F0BA
:10023400000F01F0004C02BF490011F4000F013B14
:10024400F9D041EA0C018FE70CEAD15392EA0C0F82
:1002540018BF93EA0C0F0AD030F0004C18BF31F0ED
:10026400004CD8D180EA010000F00040704790F0C3
:10027400000F17BF90F0004F084691F0000F91F067
:10028400004F14D092EA0C0F01D142020FD193EA2D
:100294000C0F03D14B0218BF084608D180EA0100B5
:1002A40000F0004040F0FE4040F40000704740F091
:1002B400FE4040F44000704781F0004102E000BF7E
:1002C40083F0004330B54FEA41044FEA430594EA12
:1002D400050F08BF90EA020F1FBF54EA000C55EA4D
:1002E400020C7FEA645C7FEA655C00F0E2804FEA1E
:1002F4005454D4EB5555B8BF6D420CDD2C4480EA00
:10030400020281EA030382EA000083EA010180EA2F
:10031400020281EA0303362D88BF30BD11F0004F7D
:100324004FEA01314FF4801C4CEA113102D04042B3
:1003340061EB410113F0004F4FEA03334CEA1333EE
:1003440002D0524263EB430394EA050F00F0A78006
:10035400A4F10104D5F1200E0DDB02FA0EFC22FA01
:1003640005F2801841F1000103FA0EF2801843FAF5
:1003740005F359410EE0A5F120050EF1200E012AE6
:1003840003FA0EFC28BF4CF0020C43FA05F3C01824
:1003940051EBE37101F0004507D54FF0000EDCF19D
:1003A400000C7EEB00006EEB0101B1F5801F1BD346
:1003B400B1F5001F0CD349085FEA30004FEA3C0C4A
:1003C40004F101044FEA445212F5800F80F09A8040
:1003D400BCF1004F08BF5FEA500C50F1000041EB44
:1003E400045141EA050130BD5FEA4C0C404141EB48
:1003F4000101013C28BFB1F5801FE9D291F0000F43
:1004040004BF01460020B1FA81F308BF2033A3F1F1
:100414000B03B3F120020CDA0C3208DD02F1140CE8
:10042400C2F10C0201FA0CF021FA02F10CE002F123
:100434001402D8BFC2F1200C01FA02F120FA0CFC1C
:10044400DCBF41EA0C019040E41AA2BF01EB045165
:10045400294330BD6FEA04041F3C1CDA0C340EDC63
:1004640004F11404C4F1200220FA04F001FA02F3A6
:1004740040EA030021FA04F345EA030130BDC4F164
:100484000C04C4F1200220FA02F001FA04F340EA59
:100494000300294630BD21FA04F0294630BD94F00A
:1004A400000F83F4801306BF81F480110134013DF1
:1004B4004EE77FEA645C18BF7FEA655C29D094EA62
:1004C400050F08BF90EA020F05D054EA000C04BFE0
:1004D4001946104630BD91EA030F1EBF00210020CB
:1004E40030BD5FEA545C05D14000494128BF41F06A
:1004F400004130BD14F580043CBF01F5801130BDCE
:1005040001F0004545F0FE4141F470014FF0000058
:1005140030BD7FEA645C1ABF194610467FEA655C09
:100524001CBF0B46024650EA013406BF52EA0335AB
:1005340091EA030F41F4002130BD00BF90F0000F99
:1005440004BF0021704730B54FF4806404F13204D5
:100554004FF000054FF0000150E700BF90F0000F8E
:1005640004BF0021704730B54FF4806404F13204B5
:1005740010F0004548BF40424FF000013EE700BF85
:1005840042004FEAE2014FEA31014FEA02701FBF15
:1005940012F07F4393F07F4F81F06051704732F047
:1005A4007F4208BF704793F07F4F04BF41F400219E
:1005B400704730B54FF4607401F0004521F00041FC
:1005C4001CE700BF50EA010208BF704730B54FF086
:1005D40000050AE050EA010208BF704730B511F087
:1005E400004502D5404261EB41014FF4806404F1BF
:1005F40032045FEA915C3FF4D8AE4FF003025FEA45
:10060400DC0C18BF03325FEADC0C18BF033202EBC8
:10061400DC02C2F1200300FA03FC20FA02F001FA22
:1006240003FE40EA0E0021FA02F11444BDE600BFC5
:1006340080F0004002E000BF81F0004142001FBF93
:100644005FEA410392EA030F7FEA226C7FEA236C9C
:100654006AD04FEA1262D2EB1363C1BFD218414091
:1006640048404140B8BF5B42192B88BF704710F027
:10067400004F40F4000020F07F4018BF404211F0CA
:10068400004F41F4000121F07F4118BF494292EA32
:10069400030F3FD0A2F1010241FA03FC10EB0C005E
:1006A400C3F1200301FA03F100F0004302D54942EB
:1006B40060EB4000B0F5000F13D3B0F1807F06D398
:1006C40040084FEA310102F10102FE2A51D2B1F190
:1006D400004F40EBC25008BF20F0010040EA030085
:1006E4007047490040EB0000013A28BFB0F5000F05
:1006F400EDD2B0FA80FCACF1080CB2EB0C0200FABB
:100704000CF0AABF00EBC25052421843BCBFD04009
:100714001843704792F0000F81F4000106BF80F483
:1007240000000132013BB5E74FEA41037FEA226C46
:1007340018BF7FEA236C21D092EA030F04D092F011
:10074400000F08BF0846704790EA010F1CBF002045
:10075400704712F07F4F04D1400028BF40F00040A2
:10076400704712F100723CBF00F50000704700F0C2
:10077400004343F0FE4040F4000070477FEA2262E9
:1007840016BF08467FEA23630146420206BF5FEABA
:10079400412390EA010F40F4800070474FF00003BA
:1007A40004E000BF10F0004348BF40425FEA000C81
:1007B40008BF704743F0964301464FF000001CE029
:1007C40050EA010208BF70474FF000030AE000BF7F
:1007D40050EA010208BF704711F0004302D54042BD
:1007E40061EB41015FEA010C02BF8446014600202F
:1007F40043F0B64308BFA3F18053A3F50003BCFA4A
:100804008CF2083AA3EBC25310DB01FA02FC6344F6
:1008140000FA02FCC2F12002BCF1004F20FA02F2FD
:1008240043EB020008BF20F00100704702F12002F0
:1008340001FA02FCC2F1200250EA4C0021FA02F251
:1008440043EB020008BF20EADC70704753B94AB991
:10085400002908BF00281CBF4FF0FF314FF0FF30C4
:1008640000F00CB8ADF1080C6DE904CE00F010F8FE
:10087400DDF804E0DDE9022304B07047704700BFEF
:10088400034613F8012B002AFBD1181A01387047CC
:100894002DE9F04786468C460846089E1546744660
:1008A4001946002B40F0C1808542B2FA82F245D944
:1008B4004AB1C2F1200300FA02FC954094402EFA9A
:1008C40003F343EA0C0C4FEA154EA8B2230CBCFB0D
:1008D400FEF80EFB18CC08FB00F943EA0C439945DB
:1008E40028D9EB1808F1FF3704D2994502D9A8F1A9
:1008F40002072B44A3EB0903A4B2B3FBFEFC0EFBDB
:100904001C330CFB00F044EA0344A04214D92C1914
:100914000CF1FF3304D2A04202D9ACF102032C44FF
:10092400241A43EA07401EB1D440002334607360A4
:10093400BDE8F0874746DDE76346F1E792BB431B1A
:1009440001214FEA154EAFB2200CB3FBFEFC0EFBA7
:100954001C330CFB07F840EA0343984561D9EB18B4
:100964000CF1FF3004D2984502D9ACF102002B44BB
:10097400A3EB0803A4B2B3FBFEFC0EFB1C330CFB7D
:1009840007F744EA0344A7424DD92C190CF1FF336D
:1009940004D2A74202D9ACF102032C44E41B43EA7B
:1009A4000040C0E7C2F120039540944020FA03F1CF
:1009B4002EFA03F34FEA154E9040AFB20343B1FB56
:1009C400FEFC0EFB1C10190C0CFB07F841EA00415D
:1009D400884522D969180CF1FF3004D2884502D920
:1009E400ACF102002944A1EB08019BB2B1FBFEFC6F
:1009F4000EFB1C110CFB07F743EA01439F420ED97F
:100A0400EB180CF1FF3104D29F4202D9ACF1020180
:100A14002B44DB1B41EA004193E76046E3E7614670
:100A2400F7E76046A4E76346B8E7834206D916B9F8
:100A3400002108467CE7C6E900E0F9E7B3FA83F74A
:100A44008FB9834201D3724508D8BEEB020460EB30
:100A5400030301209C461EB9002169E73846FAE7E2
:100A6400C6E9004CF8E7C7F1200CBB400EFA07F5C5
:100A740022FA0CF42EFA0CF1BA401C4320FA0CF3BF
:100A8400B8404FEA144901431FFA84FEB3FBF9F856
:100A940009FB18300B0C08FB0EFA43EA00439A4595
:100AA40040D9E31808F1FF3004D29A4502D9A8F1DD
:100AB40002002344A3EB0A0389B2B3FBF9F809FB50
:100AC400183308FB0EFE41EA03418E452CD9611808
:100AD40008F1FF3304D28E4502D9A8F10203214460
:100AE40043EA0040A1EB0E01A0FB02984145CE462B
:100AF400434602D306D14D4504D20138B9EB020E68
:100B040068EB0403002EA7D0B5EB0E0261EB0301E2
:100B140001FA0CFC22FA07F3F9404CEA0303C6E994
:100B2400003199E74046C5E74346D9E72F2337B557
:100B34008DF803300DF1020201230DF10301054686
:100B440007F0C1FC044628B11A4A01211A4808F0EA
:100B540035FA0AE09DF80230302B09D00121174AFA
:100B6400154808F034FA6FF00404204603B030BD91
:100B74000321134A104808F02AFA40F609032846CC
:100B840001A9ADF8043007F08AFC044608B10D4A07
:100B9400DBE7012007F073FC0A23284601A9ADF81E
:100BA400043007F07CFC044608B1074ACDE7032172
:100BB400064ACBE75CAC0000C0A5000076AC0000A0
:100BC40091AC0000B8AC0000D3AC0000F1AC000064
:100BD4002DE9F04F85B000AF0321504A504808F08A
:100BE400EDF9504808F0EAFE40B94F4A01214C485B
:100BF40008F0E4F91437BD46BDE8F08F4948FFF723
:100C040095FF002840F08180DFF820A1454807F1D6
:100C14000C0307F10802391D07F070FC0546002893
:100C240075D17868FFF7BEFD5146FFF791FA81460A
:100C3400B868FFF7B7FD5146FFF78AFA8046F868AF
:100C4400FFF7B0FD5146FFF783FAEB468CB006463A
:100C54006C46374B48466361FFF792FC0022002341
:100C6400FFF730FBC4E906014046FFF789FC002288
:100C74000023FFF727FBC4E908013046FFF780FC97
:100C840000220023FFF71EFB22460823C4E90A01C1
:100C940042F8103F44F2C0012B46214800F0C8FF3F
:100CA4004946DD464846FFF753FA41460446404666
:100CB400FFF74EFA01462046FFF7C0FC31460446D2
:100CC4003046FFF745FA01462046FFF7B7FC09F026
:100CD40083F988B06C46174B6361FFF751FC00221F
:100CE4000023FFF7EFFA22460423C4E9060142F881
:100CF400103F4FF403512B46094800F099FFDD469D
:100D04004FF47A7007F0BBFB80E70B4A6EE70121D2
:100D14000A4A034808F052F9F2E700BF14AD000094
:100D2400C0A5000044A3000038AD00006F12833852
:100D34006CAD00008CAD00004DAD00009EAD000018
:100D44002DE9F04F91B0009302F004030293C2F333
:100D5400C2030133840705460E46DDF8689003920A
:100D6400059340F0BB81041D30B1072909D86FF009
:100D74001B0011B0BDE8F08F01F00706341DC6F169
:100D84000806009B4FF000084FF0040A591E4FF06C
:100D9400FF3347460193C3465346CDF810800DB147
:100DA400009A22600598002800F3E8809848009A89
:100DB400824203D397488242C0F0E080039AA4EBB6
:100DC400050E92074FEA9E0000F103810F2F00F2F7
:100DD400B180002D00F0058107F140020DEB020CFB
:100DE400019A0CF8200C0CF8102C04980130049093
:100DF400E7E07A285DD84B280ED8472859D8292807
:100E04002DD8252852D054D820287AD02338D0F190
:100E1400000B4BEB000B74E04C382E2849D8DFE86C
:100E240000F07048484848484848484848484B48B3
:100E34004848484848484859484B4B595959704BB9
:100E44006D487048184B184848827F4B48484B48B7
:100E54007F0000204FF0000B4FF0040A38E001221D
:100E64002A38C0B202FA00F010EA0E0F49D110F08D
:100E7400625C2FD110EA020B43D06046013C54441B
:100E8400B4FBFAF40AFB04F4002D61D0A3EB050CC7
:100E9400A444B4453FF66BAF002868D1042B47D176
:100EA40059F8043B2360042304342AE0019A013AEC
:100EB40001924FF0000B24E011F8010C6C2834D19E
:100EC400002011F8023C83466C2BC5D14FF0080A70
:100ED4005346D3E709F1070929F00709073424F039
:100EE4000704F9E802AB35B106982044B0423FF656
:100EF4003EAFC4E900AB4FF0000B08344FF0080AD2
:100F0400534611F8010F002878D0BBF1000F7FF48D
:100F140070AF2528F5D14FF0010B019B01330193EC
:100F24004FF0040AECE7584694E700208346A5E70F
:100F3400082B02D06FF015001BE709F1070929F00F
:100F44000709F9E80223C4E9002308230834D8E791
:100F540068B9042B02D109F10409A4E7082BE9D1EB
:100F640009F1070929F0070909F10809EDE7059ACC
:100F7400013A059259F8042B009210E7039A90075E
:100F840020D54FF0010CA4EB050E4FEA9E00BEF5F0
:100F9400007FCFD20F2FCDD8F5B107F140020DEB72
:100FA400020E019AC0B20EF8200C0EF8102CBCF1FF
:100FB400000F3FF41AAF60F07F000EF8200C08F128
:100FC40001080137C5F108024FF6DA7E04340692AF
:100FD40097E74FF0000CDAE7BCF1000F01D00136BF
:100FE400EFE7029802360028EBD10098CDE90631EC
:100FF400FFF746FCDDE906310644E2E7631BB3F57F
:10100400806F97D245B9A6F10804E018B1E600BF95
:1010140050A2000028B90000029A9B0828602B7097
:101024009DF81030C2B1EB7085F80280B8F1000F62
:1010340005D0002208A8C5F1010C97420ED14FF04B
:10104400000AC5F101030DF1200901930DF1300BE4
:10105400574512D1601B8CE66B70E5E710F8013B35
:10106400190608D504EB0C0EB64503F07F033FF6D2
:101074007EAE04F8013B0132DFE7B8F1000F03D084
:1010840099F90020002A17DB029BD3B11AF80B2030
:1010940004F8012B0022019B98182044B0423FF62B
:1010A40066AE99F80000009904F8010B20460392FB
:1010B40008F0E5FF039A14440AF1010A09F1010951
:1010C400C6E799F8002055F822300093029B009857
:1010D40045F82230FFF7D4FB421CDCE76FF00D002B
:1010E40047E600BF2DE9F04F97B000AFD7F880B0C6
:1010F4003B62CBF3C0030446894690F802A0FA622F
:10110400BB6141B9457800780AEB800020444D4525
:1011140017D8A0EB0409E378FB61BAF1000F02D001
:101124001BF0010F16D1FB6953BBFB6A1BB1494687
:1011340020463A6A98474D4628465C37BD46BDE886
:10114400F08F461C3046FFF79BFB0130304409F119
:101154000109DCE7626823787A62FA6A99007961A6
:1011640004EB8301002A40F001810E464FF0000891
:101174004D4601EB0A094E454CD101EB0A0610E03D
:101184001BF0020FD1D023789A007A61626804EBD5
:1011940083017A62FA6A002A77D14D46904601EBC0
:1011A4000A061BF0050F0CBF02230123FB62FB6937
:1011B40006EB430A0BF00203BB625645BCD016F89B
:1011C400021B16F8013C54F82390AF4B994502D307
:1011D400AE4B994536D3BB69002B40D0786A07F0F3
:1011E400EBFA00283BD0E9468AB06A46A84B536123
:1011F4007B6AC2E906314FF400731384A54B42F8AD
:10120400103F00234FF41251A34800F011FD023D9A
:10121400CD46D2E716F8013BF96254F82300FFF7F4
:101224002FFBD7F88430F96A01304BB1D7F88830F6
:1012340098453EBFD7F8843023F8180008F1010818
:10124400054498E7BB6923B1786A07F0B5FA00282A
:10125400C9D11BF0010F05D1FB6AED1AADE7BB6ADA
:10126400002BAAD04846FFF70BFBD7F8843053B1C4
:10127400D7F8883098453FBFD7F88420431C22F81C
:10128400183008F10108054497E7BAF1000F73D04C
:101294001BF0040673D0D046002607F148005246DE
:1012A4003B61B96208F0EBFEB96A3B6901EB0A02E3
:1012B400BA62FA69F9695200FA60BA6A02EB410249
:1012C4003A610BF00202BA603A69B96A8A4258D1AB
:1012D40062781BF0020F18BF00217A6208BF4FEA40
:1012E4005801B2181BF0010FD2B240F09F801BF0DE
:1012F400040F14BF40460020BB616270A070E1700F
:1013040020463A6A7969FB6A9847051EFFF614AFCE
:10131400BB69414623707B6A3A6A6370FB6984F84F
:1013240002A0E37007F14800FB6A9847B0F1000897
:10133400C0F2B4807B69A9EB0A01C91AFB683A6A56
:10134400C91AD7E90A0398470028C0F2A9804FF0C8
:10135400000BA84408EB000507F1380AB34567D32E
:1013640000213A6A0846FB6A9847E5E656464FF07C
:10137400000807F1380092E75646D04696E7B04693
:1013840094E7BA6A12F8021B12F8015CBA6254F8C4
:1013940025003D4A904202D33C4A90421ED3BA698A
:1013A40032B1786A7B6007F007FA7B6800288BD13A
:1013B400BA6802BB08F1280207F1300C08F10100F9
:1013C400944407F1580208F1020852FA80F00CF82C
:1013D400101C5FFA88F800F8105C75E7BA693AB136
:1013E400786A7B6007F0E8F97B6800287FF46CAFCB
:1013F4001BF0010F09D006F1280207F13000711C1F
:10140400161806F8205CCEB25EE71BF0040F3FF41A
:101414005BAF08F1280207F1300008F1010102EB8B
:10142400000808F8105C5FFA81F84DE7002063E7D4
:101434001BF80A3054F8239087F83730D7F88430F3
:10144400FBB133F81B8001213A6AFB6A07F13700CC
:101454009847002824DB0544B8F1000F06D148461C
:10146400FFF70EFA00F101081FFA88F841464846D2
:101474003A6AFB6A9847002812DB05440BF1010B1A
:101484006CE7D7F88480DEE750A2000028B900009A
:10149400C9AD00000400000180A5000045464BE6EC
:1014A400054649E6014B1860704700BF0000002064
:1014B40080B505460E461746984605F04DFA034694
:1014C40008F0BAFE0446DFF81890424649F80030A6
:1014D40039463046A84754F8090001F0A5FA00BF80
:1014E400080000002DE9F047058B044628079046C4
:1014F40011D4022905F0070540F0CC80204607F0FE
:10150400EFFB78B10138218B042811D8DFE800F013
:10151400C2106D85950001290CBF45F0100545F0FA
:101524002005258388F31188BFF36F8FBDE8F0870A
:1015340001F0070AAA4500F0A5800027B9463E46F7
:10154400A368002B00F0BC8041F00801218388F3DC
:101554001188BFF36F8FA168002900F0BA800D686D
:10156400002900F0B680334652462046D1F8048064
:10157400C047002D76D02B6829461D46F0E701F0C0
:1015840007035A1F012A1BD8002221F00701062B4A
:10159400276889B2C4E9002209D13B4603E0628B83
:1015A400013262831B68002BF9D141F0020120460D
:1015B400218307F095FB00287AD041F0200176E0E2
:1015C400042B0AD121F0070189B22046218307F0B8
:1015D40087FB10B141F020012183218B01F0070A20
:1015E400AA454FD00027B946AAE7236921F007018D
:1015F40041F00601062DD3F8009021832DD1B9F1D5
:10160400000F3FD041F00801218388F31188BFF314
:101614006F8F20463949C84729E021F00701236923
:1016240041F0040189B2042DD3F804902183E6D05B
:1016340000274FF0040A3E4682E721F007012369A0
:1016440041F0050189B2052DD3F808902183D6D045
:1016540000274FF0050A3E4672E700274FF0060ABE
:101664003E466DE72B4687E7B9F1000FD1D1EFF382
:101674001188202383F31288BFF36F8F238B23F009
:1016840008032383258BEA062ED525F01003238334
:1016940005F007056669218B002EBFF670AF0023A5
:1016A4002768C4E9003321F0070141F001012183D7
:1016B400218B4FF0000901F0070AAA457FF440AFDF
:1016C400002F9CD041F00801218388F31188BFF3D7
:1016D4006F8F002FC8D03D683946334652462046A6
:1016E40007F02AFB2F46F4E7AB067FF51BAF25F086
:1016F4002003238305F0070500E700BF698D000080
:101704002DE9F047044607464FF00109DFF8508001
:1017140014B93846BDE8F08794FAA4F5B5FA85F50E
:1017240009FA05F32E0108EB05156FEA030A24EA0A
:1017340003042B7B002BEBD058F806301B694BB904
:101744004644736804222846196807EA0A0700F029
:101754005BFADDE7284698470028D9D1F0E700BFB7
:10176400F0A5000030B5002289B00F490F4808F0F9
:10177400DCFA002200230024CDE906230E230C4DBD
:10178400CDE903344FF440722846CDE90144094BB6
:101794000949009404F010FE0849284608F0B7F9F6
:1017A400204609B030BD00BFC517000098060020D0
:1017B40010020020B11A0000501200207DAE00007B
:1017C400014804F071BD00BFFC0100202DE9F04781
:1017D40080461F480F4607F06FFB0646002830D0AE
:1017E40000252846BDE8F087237B6BB12368DB68BE
:1017F4000BB12046984723681B69D3B96368042258
:101804002046196800F000FA013610344C45EBD339
:10181400B8F1000FE5D0002DE2D02846FFF770FFA5
:101824000546002FF7D000214FF4A47005F076F898
:10183400F1E7204698470028E0D00AFA06F31D4352
:10184400E2E705464FF0010A024CDFF80C90DDE7B1
:10185400B0080020F0A5000000A60000014B53F8DA
:1018640020007047ACA8000008B5034608462BB119
:10187400044A136000F072FC002008BD6FF01500EC
:10188400FBE700BF0400002010B5044C237813B913
:10189400034804F009FD0123237010BD3012002019
:1018A400FC01002010B50446094807F005FB3CB1D3
:1018B400084BD3E8EF1F0139C3E8E21F002AF8D12F
:1018C400054808F03EFABDE81040044804F0ECBCBA
:1018D400A8080020AC08002098060020FC01002085
:1018E40000200146034BD3E8EF0FC3E8E21F002AB0
:1018F400F9D17047A808002070B5FFF7F1FF05463D
:10190400074C084EB44200D370BD63685B792BB1B9
:1019140023685B6813B12946204698471034F1E7E1
:10192400F0A5000000A6000010B5044C04492046B0
:1019340007F072F8034B1C6010BD00BF5C0100206F
:1019440098A80000A008002008B50023074A4FF417
:1019540000411370064A07481360074A1360FFF7F3
:1019640083FFBDE80840FFF7DFBF00BF311200204E
:10197400A8080020B98E0000AC080020014600220F
:101984000023014807F069B85C010020014807F012
:10199400FFB800BF5C010020024B0146186807F045
:1019A4004BB900BFA0080020014807F080B900BF70
:1019B4005C01002070B5264B1878002847D0FFF74B
:1019C400E5FF054670B1234BD3E8EF1F0139C3E8A7
:1019D400E21F002AF8D1204C204EB4422DD32846D1
:1019E400FFF7DAFF1E4B1F4C1B68002B19DD08F0B4
:1019F4009AF94FF47A72A0FB020302FB0131C30B84
:101A040043EA4143D4E900209B1A40F2E9324FEA09
:101A1400D13161EB0001934271F1000101D3FFF771
:101A24006BFFD4E9003213F57A7342F10002C4E982
:101A34000032BDE87040FFF7B7BF63685B7923B13C
:101A44002368294620461B6898471034C5E770BDB3
:101A540030120020AC080020F0A5000000A6000011
:101A6400A80800209006002070B50D4D297861B9B2
:101A74000120FFF7ABFE0B4C0B4EB44206D3FFF72D
:101A840099FF0028FBD101232B7070BD63685B793B
:101A94001BB1236820469B6898471034EDE700BFCC
:101AA40031120020F0A5000000A6000000212DE95D
:101AB400F0470846FFF78AFE044658B340F26768C9
:101AC4004FF0000908F0B8FB1B4B1C4A1B5813606D
:101AD40033B11B4B1B68092B02DD1A4804F0E4FBED
:101AE4000025194FDFF85CA044B12046FFF708FE3B
:101AF400044618B94FF0FF384FF0FF39FFF75AFF8B
:101B0400064628B9B5B942464B46504604F0F0FBA8
:101B14003546E9E74FF0FF384FF0FF39D2E72B683D
:101B24009B691BB100222846114698471035BD42D7
:101B3400F5D3E8E7054DFAE708000000A408002003
:101B4400AC080020FC01002000A60000F0A5000065
:101B540013B5184807F0B0F9174B1B7873B1EFF3BE
:101B64001184202383F31288BFF36F8FFFF722FFC2
:101B740084F31188BFF36F8F02B010BD0F4B1B6845
:101B8400002BF9D050B9002200230D48CDE90023E1
:101B94004FF40042002305F035F9EDE70928EBD1B5
:101BA400074808F0CEF8074802B0BDE8104004F03A
:101BB4007BBB00BFAC08002031120020A408002029
:101BC40098060020FC01002010B5064B04461B6853
:101BD40098472146A060044806F0BBFFBDE81040CA
:101BE400FFF7B6BF040000205C010020044A054B47
:101BF4009B1AB1EBD30F34BF52F831000020704769
:101C040080A50000F0A50000084B10B4C31A446876
:101C14001B110133237143689A71012243681960CF
:101C240043685A7110BCFFF72FBE00BFF0A5000037
:101C34002DE9F04F8FB0C1F34A2804AF0D46914609
:101C4400B8607B600C0DB8F1000F63D000264FF034
:101C5400040B4FF00A0A07F11403C7F80C80C7E914
:101C640007667E620193CDF808B0CDF800A007F1B5
:101C74001C0332464846F968FFF734FAB0F5006FA2
:101C840003461CD36C468AB0D9F8041004AB26482A
:101C94001A46C3E9050140F2FF71D9614FF400719E
:101CA4001984224B42F8103F4FF412513346204816
:101CB400FFF7BEFFA5462C37BD46BDE8F08FC0F345
:101CC4000A0804F11700184420F0070080083B605C
:101CD400FFF754FE68F35325044690B13B6800F1C6
:101CE4001001C7E9083607F11403F961CDE900A32F
:101CF400CDF808B048460F4AF96807F11C03FFF70E
:101D0400F1F968F353252A4620467B68B96807F041
:101D140005F9D0E704F1170020F007008008FFF769
:101D24002DFE0446EDE700BF92AE00000400000162
:101D3400A0A50000F58E00002DE9F04F87B0044601
:101D4400DDE9105ADDE91279934698460391BFB153
:101D54003B46524610210020CDF80090CDF8149057
:101D6400FEF7EEFFB0F5006F06460AD340F2FF73AC
:101D74000221174A174807B0BDE8F04F07F027B90A
:101D84003E4605F11700304420F007008008FFF7B5
:101D9400F5FD04F007040BF0070BE40044EA8B1490
:101DA40044EA462444EA0554054640B13FB13B4663
:101DB40052463146CDF800901030FEF7C1FF43463D
:101DC40022462846039907B0BDE8F04F07F0A6B8AD
:101DD400D1AE0000A0A50000406820B1034BC01A9A
:101DE40040F3CF0070474FF0FF30704780A50000EC
:101DF4000EB403B503AB53F8042B01460448019316
:101E040001F078F902B05DF804EB03B0704700BF4D
:101E140035900000CA0605D48B064CBF024903491D
:101E2400FFF7E6BF704700BF0AAF000009AF00002C
:101E34002DE9F04F89B09B46149B9DF84CA0069366
:101E4400159B04460593169B0D469046179E0493D6
:101E5400BAF1000F00F09D8006F48073079307F039
:101E640045F806F00209024600283ED02046914972
:101E7400FFF7BEFF0746B9F1000F08D016F0440F74
:101E840035D12A4620468C49FFF7B2FF074406F0B5
:101E9400010353B1894B204653F82A20884B8949C2
:101EA400002A08BF1A46FFF7A3FF06F48073002B2D
:101EB40049D006F00803002B63D1B8F1000F66D0B7
:101EC400424620468049FFF793FF0546069B3D4462
:101ED400002B6DD1049B002B73D1F30700F1E48038
:101EE40031462046FFF796FFD8E00746C3E7774B15
:101EF40018680028CAD0764B4FF47A791B684FF4DF
:101F04006161B5FBF3F5B5FBF0F300FB135509FB79
:101F140005F5B3FBF1F2B5FBF0FE4FF03C0C01FB11
:101F2400123100FB1E55B1FBFCF309FB05F5B5FBB3
:101F3400F0F50CFB131120460091CDE901E565494C
:101F4400FFF756FFA2E706F00803EBB1624B204609
:101F540053F82A206149FFF74BFF0546B8F1000FFB
:101F640005D0424620465849FFF742FF0544BBF1DD
:101F7400000FABD05A4620465949FFF739FF0544B4
:101F8400A4E74FF0000BE1E706F00805E6E7454655
:101F94009CE7BBF1010F069B06D1002B64D1049B87
:101FA400002B7BD000250CE0002BF8D04D485CE0E2
:101FB4004D48069B22464D4906F0CDFB049B002B61
:101FC40068D0DFF82C81DFF82C91049F3146102F64
:101FD400204628BF10274FF0000BFFF71BFF5D457D
:101FE40045DC059B494620461A78FFF701FF4FF070
:101FF400010B1BF0070F03D141462046FFF7F8FE03
:102004005F453BD9059B4946204613F80B20FFF753
:10201400EFFE0BF1010BBBF1100FEAD14FF0000BF7
:1020240020463549FFF7E4FE5A46059B20469A5C54
:10203400A2F120015F2928BF2E223049FFF7D8FEE4
:102044000BF1010BBBF1100F1DD01BF0070F03D1D7
:1020540041462046FFF7CCFE5F455A46E5D8414647
:102064002046FFF7C5FEEBE71F485546A1E741466A
:102074002046FFF7BDFE0BF1010BB0E720462049D7
:10208400FFF7B6FEC5E7059B3B440593049BDB1BAA
:1020940004939AD1BAF1000F7FF41FAF204609B020
:1020A400BDE8F04F06F0B7BF2046054A0549FFF7E3
:1020B4009FFE15E711AF000015AF0000BCA800009B
:1020C4000CAF0000ECB600003AAF0000B8080020E6
:1020D400B40800201EAF0000D0A800003EAF0000EE
:1020E40044AF00006390000035900000F930000018
:1020F40051AF000049AF000053AF000055AF0000DE
:102104004FAF000042F20F7373B58B4228BF0B46EA
:1021140005680446052168460D4A05F057F8064649
:10212400636828460B225B680A4906F066FF636809
:102134003246694628465B6806F05FFF63681B22E7
:1021440028465B68044906F058FF02B070BD00BF22
:102154001BB1000074AF000058AF00000021012340
:10216400064A904206D8064A01B901231360054B7A
:1021740018607047012140085B00F2E740420F00FD
:10218400B4080020B8080020F8B50D460446064FF0
:102194004618B44201D12846F8BD14F8011BBB68A7
:1021A40001485B689847F4E71CA30000014B0360F7
:1021B4000020704718A9000008B5044806F023FB66
:1021C400BDE80840024806F01EBB00BFBAAF0000DD
:1021D400EFAF0000014804F0B7BE00BF18A900002B
:1021E40038B5044618B90F4B0F485B6898476168C7
:1021F400B1F5683F10D0B1F5680F0DD00B4DA94271
:102204000AD011F46861206807D00146084807F035
:102214002DFC00232360656038BD142207F03CFFC9
:10222400F9E700BFF00000201DB000002C5F5CA99E
:10223400E00D002008B560B34368B3F5683F0ED0E5
:10224400B3F5680F18D0144A934220D000684FF0B9
:10225400FF324FF0FF3303F073FF58B115E0012252
:102264000368D3E8EF1F002903D1C3E8E02F002857
:10227400F7D10AD1002008BD0368084A1B7803F58A
:10228400807352F82330002BF4D00548F3E7054857
:10229400F1E76FF4E040EEE72C5F5CA90000035027
:1022A400E98FFFFFEA8FFFFF08B520B34368B3F55A
:1022B400683F09D0B3F5680F13D0114A93421DD07B
:1022C400006803F0B5FF14E000220368D3E8EF1FB1
:1022D400012903D1C3E8E02F0028F7D109D0094828
:1022E40008BD00210368084A1B7803F5807342F88F
:1022F40023100020F4E76FF4E040F1E70348EFE730
:102304002C5F5CA9E98FFFFF00000350EA8FFFFFF9
:1023140010B5044618B91D4B1D485B68984763689F
:10232400B3F5683F2FD0B3F5680F2CD0194A934208
:1023340019D1236803BB4FF0FF324FF0FF3321461E
:10234400154803F0CFFE08B923681BB90F4B134897
:102354005B68984714220021206807F09DFE4FF423
:102364006863636008E0B3F5683F0DD83A2B03D087
:1023740040F6BA629342DED1206807F0AFFB63688F
:1023840043F03A03636010BD054AF3E7F000002010
:102394001DB000002C5F5CA9E00D002043B00000DC
:1023A4003A00003A08B5064940231422054807F0CC
:1023B4004FFBBDE808400449044804F037BE00BFA1
:1023C400E0080020E00D002020A9000034A900004E
:1023D4002DE9F04706460C4600AF002936D0D1E976
:1023E4000012E9468AB06D46A3684FF0050AA84674
:1023F4001F48C5E90723C5E9050148F810AF0023C4
:1024040042464FF421511B48FFF712FCD4E9031252
:10241400CD466369AD461848C5E90723C5E90501FA
:10242400C5F810A0002342464FF421511148FFF78C
:10243400FFFBCD46E3690121104A0E4806F0C7FDB3
:10244400A36901210E4A0B4806F0C1FD012E07D1F4
:10245400EFF305830B4A31460648103B06F0B7FDFF
:102464002146304603F08EFCBD46BDE8F08700BF30
:1024740070B00000D0A500009FB00000CEB00000F6
:10248400DDB000000BB1000030BFFFF7FDBF00BF9F
:102494002DE9F04105460B4EDFF82C80324606EB61
:1024A4000807CC1B2046094907F0E9FDA01942465C
:1024B4000021083C07F0F0FD2C6707F10800BDE897
:1024C400F08100BF000000000400000000A600002E
:1024D400074A936893F90E10002907DB5269934267
:1024E4001FBF044A536843F080535360704700BFD2
:1024F4002810002000ED00E070B52A4C06460D4679
:1025040029482A4906F033FEA36ADB0647D5264844
:10251400274906F02CFE1120A36A1C0704D5224883
:10252400244906F024FE12201E4CA36A990712D5F2
:1025340021491D4806F01BFE636BA26A120609D5E9
:1025440001211E4A184806F042FD1EB1A36A23F079
:102554008003A3621320134CA36ADE0704D5124838
:10256400174906F004FE1420A36A9C0604D50E48FD
:10257400144906F0FCFD15200A4B9A6AD10658BF8F
:102584009A6A9A6A920642BF5A6A22F400525A62BE
:102594009A6A42F0FF029A6200232B7070BD1020E9
:1025A400BAE700BF00ED00E0D0A500001EB10000B6
:1025B40034B1000067B100007AB1000092B10000AC
:1025C400A8B10000C7B1000010B5244C2449254827
:1025D40006F0CDFDA36A99013ED52248224906F0B2
:1025E400C6FD1E20A36ADA0104D51E481F4906F061
:1025F400BEFD1F20194CA36ADB0204D519481C49EF
:1026040006F0B5FD0220A36A1C0304D51548194938
:1026140006F0ADFD2120114CA36A590304D51148DD
:10262400154906F0A4FD2220A36A9A0304D50D4897
:10263400124906F09CFD2320084CA36ADB0304D551
:1026440008480F4906F093FD2420A36A6FEA034368
:102654006FEA1343A36210BD1D20C3E700ED00E041
:10266400F6B10000D0A500000EB2000021B20000B7
:102674003BB2000065B2000083B20000A8B20000C3
:10268400C2B2000070B5294C06460D4628482949B7
:1026940006F06DFDA36AD9043CD52548264906F009
:1026A40066FD1720A36A1A0504D52148234906F0BC
:1026B4005EFD18201D4CA36A9B0512D51C482049B9
:1026C40006F055FDA36BA26A100409D501211D4A29
:1026D400174806F07CFC1EB1A36A23F40043A362EE
:1026E4001920124CA36A590504D51148164906F05D
:1026F4003EFD1A20A36ADA050ED50D48134906F0EB
:1027040036FD1B20094A936A43F47F4393620023F6
:102714002B7070BD1620C5E7A36A9B04F2D504484C
:102724000B4906F024FD1C20ECE700BF00ED00E09F
:10273400D0A50000EDB2000003B3000067B10000B3
:1027440014B300002DB3000042B300005DB30000D9
:10275400C7B100002DE9F0418AB0654B0446D3F8B7
:102764000480002600AFC8F3080586F31188BFF380
:102774006F8F02F07F43B3F17F4F07D102F00C0358
:10278400082B12D15B495C4806F0F1FC0026344664
:102794000023FB71EB1E092B00F28980DFE803F0B4
:1027A4000A7F827C87878787878510074CBF0C4602
:1027B4000126EDE75149504806F0D9FC00234C4D61
:1027C400FB71EB6A9A0705D54D494B4806F0CFFCDF
:1027D400002332E0EB6A002B01DA4A49F5E7EB6AA1
:1027E4005B00F5D54849444806F0C1FC6B69A26911
:1027F40043F480736B61BFF34F8FBFF36F8F6B69CB
:1028040032F8022C23F480736B61BFF34F8FBFF354
:102814006F8F4DF602739A4208D0AB6ADBB273B382
:102824000120F91DFFF768FE034606E02368012135
:10283400364A314806F0CBFB2368FA79DAB907F156
:10284400080504F1200C2A4620686168083403C294
:1028540064451546F7D17A6A002E44D0C2F30801C4
:1028640021B96FEA52226FEA42227A62184607F1CE
:102874000801FFF7ADFD2837BD46BDE8F081AB6A1E
:1028840013F47F4F04D00120F91DFFF7FBFECBE7C3
:10289400AB6AB3F5803F9BD3FFF796FEC4E70020F5
:1028A400F91DBFE70020F91DEFE719498DE7194A23
:1028B40018F4F87FE8468AB0174B18BF13466A46E7
:1028C4001649103DC2E905134FF400731384144BE9
:1028D400D56142F8103F00234FF411510648FFF729
:1028E400A7F9C54674E722F4FF7222F00102BCE79F
:1028F40000ED00E0A3B30000D0A50000CEB30000BB
:10290400E5B3000006B4000014B4000033B40000C2
:102914004FB400008AB3000075B3000073B4000024
:1029240004000001064B5A6942F010025A615A69C8
:1029340042F480625A615A6922F008025A6170476F
:1029440000ED00E0EFF30880EFF3098101B5724672
:10295400FFF700FF01BD00BF002080F31488BFF320
:102964006F8F002080F30A8880F30B8801F0E0FF6A
:1029740000200E490860BFF34F8F0D4880F308888C
:1029840000F02CF8202080F311880A484FF40061ED
:10299400401880F30988EFF314800221084380F380
:1029A4001488BFF36F8F00F003F9000094ED00E08A
:1029B4009026002050150020002318460649D1F81F
:1029C4009020C2F30722934200DB7047C1F898308D
:1029D400C1F8A0000133F6E700ED00E010B572B6CF
:1029E400002484F31388FFF7E7FF23464FF0FF30FA
:1029F4000C4A03F120010133102B42F82100F8D1D5
:102A040000234FF0FF30074A03F160010133102B1C
:102A140042F82100F8D162B6BFF34F8FBFF36F8F36
:102A240010BD00BF00E100E0084B9B6883420BD15E
:102A3400EFF3058343B1064B5A6842F080525A6063
:102A44005A6A22F400425A6207F032B92810002070
:102A540000ED00E06FF00A01084A9368996708499D
:102A640058674B6843F080534B60002383F311880D
:102A7400BFF36F8F9368986F704700BF28100020D2
:102A840000ED00E0EFF31183202383F31288BFF3FA
:102A94006F8F4FF00061084A53699360074A516091
:102AA400196F074A116000215A6F596782F3118820
:102AB400BFF36F8F704700BF2810002000ED00E0C7
:102AC400FC0D00200E498A684FF030001044EFF3EB
:102AD400098C80E8F01F74467046FFF7D3FFA646C2
:102AE40007498A6802F1300090E8F01F8CF30988E6
:102AF40002F1000004B506F042FBBDE80440704753
:102B0400281000201EF0040F0CBFEFF30880EFF331
:102B14000980816911F8021C0229FFD001B506F071
:102B24001BFB01BD40B2002807DB01234109034A16
:102B340000F01F00834042F82130704700E100E0BC
:102B440040B200280CDB01220649430900F01F00B3
:102B54008240203341F82320BFF34F8FBFF36F8FA0
:102B6400704700BF00E100E0054B420953F8222002
:102B7400012300F01F0003FA00F01040704700BF6B
:102B840000E100E040B2002801F10101ACBF00F116
:102B94006040064B4FEA4111C9B2ABBF00F561403A
:102BA40000F00F0080F800131954704714ED00E092
:102BB4000B4A08B50B4B22F07F029A60BFF34F8F8C
:102BC400BFF36F8FD3F8882022F47002C3F88820F3
:102BD40003F0C4F903F04CFF00F04CF803F0FEF9E5
:102BE4000000000000ED00E042F8203C009B0B498F
:102BF40042F81C3C019B21F0010142F8183C029B65
:102C040042F8081C42F8143C4FF0807342F8043C2C
:102C14000023203A02654367704700BFB5140000E3
:102C240000B50D4B15469860026F0C4B0E461A60AA
:102C3400036E83F30B882C4686F309884FF000005B
:102C4400074B984720464FF000014FF000024FF029
:102C54000003044C204700BF28100020FC0D002076
:102C64008B910000B51400001022014B1A617047CB
:102C740000ED00E0002320210348C2180133452B56
:102C840082F80013F9D1704700E100E008B5EFF3D2
:102C94000583064A103B02EBC30152F8330049682E
:102CA4008847BDE80840FFF713BC00BF58A30000E5
:102CB4001FB5094C094A23460121094800F012F9BD
:102CC40000230393074B0121E41A01A80193029402
:102CD40000F012F904B010BD00000720000000202D
:102CE40044A900001002002010B50C7A0B6804F00F
:102CF4001F0223F01F031A43CB68640923F01F0348
:102D0400054943EA440343F00103C1F89800C1F8BC
:102D14009C20C1F8A03010BD00ED00E010B50A4BB6
:102D2400D3F89030C3F30723013B984208D901211B
:102D34000346064A064806F04AF96FF0150010BD2E
:102D4400FFF7D2FFFBE700BF00ED00E08AB400000C
:102D5400C8A500002DE9F04F8946144606464FF0F9
:102D64000008514D85B0C84527DAD6F804A0BAF159
:102D7400000F44D0BAF11F0F17D91AF01F0F14D146
:102D8400D6F800B01BF01F0F0FD1584606F037FAE3
:102D940007460AEB0B00013806F031FA874210D0DF
:102DA4006FF01507414A3B4601E04346404A012182
:102DB400404806F00CF96FF01504204605B0BDE854
:102DC400F08F17F1160FEDD0BC42EBDDC5F898700B
:102DD400D5F89C10C5F89870D5F8A03021F01F01E3
:102DE40043F01F0BD6E900321A44994202F1FF3A2C
:102DF4001DD1D34507D13146F8B206F009FA08F1DE
:102E040001080C36AFE73146C5F89870D5F89C3008
:102E140022F01F0203F01F031343C5F89C30E0B2F5
:102E240006F0F6F910F1160FC5D0441CE7E7C5F813
:102E34009870D5F8A020013B23F01F0302F01F0275
:102E44001343D3453146E0B2C5F8A030E8D006F0CC
:102E5400DFF910F1160FAED0C5F89870D5F89C20A4
:102E64009DF808300BF1FF3B62F304038DF8083042
:102E7400D5F8A0309DF808205B0863F347128DF85D
:102E84000820D6E900321344009323F01F035B4467
:102E9400A3EB0A03013023F01F036946C0B2039376
:102EA400FFF73CFFBEE700BF00ED00E0D3B4000035
:102EB400B0B40000C8A500000522044BC3F8942058
:102EC400BFF34F8FBFF36F8F704700BF00ED00E07B
:102ED400BFF35F8F0022024BC3F89420704700BFFA
:102EE40000ED00E010B5034C2278FFF733FF2070AB
:102EF40010BD00BF331200202DE9F74F294D8A463B
:102F040006464FF00008AB46274FD0451BDAD6F8EB
:102F14000490B9F1000F3FD031680846019106F0E2
:102F24006EF90199044609EB0100013806F067F9CE
:102F340084424FF014021D4B08D002FB08F36FF0DB
:102F440015024BF8032003B0BDE8F08F14F1160FFF
:102F54002C60F8D01978A142F5DD02FB08B0C7F85F
:102F64009840C7F89840D7F89C4000F10801007BCE
:102F740064F304000871D7F8A0000C79400860F3EA
:102F840047140C71D7F89C1021F01F016960D7F821
:102F9400A01021F01F01296108F1010814350C3635
:102FA400B3E700BF000E002000ED00E03312002064
:102FB400F0B54149414CD1F890302568C3F307235B
:102FC4009D4287B075D80020FFF782FF3C4BC1F8C3
:102FD400C030854216D13B4C01A82570FFF7E6F8B6
:102FE40000250646384FAE4213D1002023783249DB
:102FF400D1F89020C2F30722934254DBFFF75CFF21
:1030040000202FE0616801EB0011FFF76DFE013035
:10301400DFE70199280101EB0513DA683A40B2F5BC
:10302400001F21D0B2F5800F2BD0B2F5801F38D10C
:103034005A689B680958013B22F01F000344012091
:10304400844623F01F0340EA4C10CDE902218DF899
:10305400100002A920780593FFF760FE00281DDA0E
:103064006FF0150007B0F0BD5A689B680958013B22
:1030740022F01F0003444FF0020C012023F01F0331
:10308400E1E75A689B680958013B22F01F0003449A
:103094004FF0000C062023F01F03D4E723780133FC
:1030A400237001359FE7C1F89830C1F8A0000133BF
:1030B4009EE74FF0FF30D5E700ED00E050A9000097
:1030C400AAFF4400331200200000F0FF08B5024BB1
:1030D4001B689847002008BD140E0020034B044AC7
:1030E4001860937843F0020393707047140E002025
:1030F40030000020F0B587B007460E461446002184
:10310400102268461D4606F0C7FF02238DF80230E0
:10311400054B2A4621466846CDE90476019304F01E
:103124001BF907B0F0BD00BF4792000008B506497F
:10313400064821F00701C1F1005202F5E02205F032
:10314400B2FA002008BD00BF972A0020180E002004
:1031540000F01F0240090DD001280DD1094B03EBEB
:103164008203D3F8002222F0E04242EA0171C3F85C
:1031740000127047044BF2E70023803253F82230E8
:10318400FFDE00BF002884500025845038B5012498
:10319400134B144DC3F8004502230321C5F8D03660
:1031A4000020FFF7D5FF20460321FFF7D1FFC5F824
:1031B40004472146C5F804492120C5F8004BFFF710
:1031C400C7FF21462020FFF7C3FF21462520FFF734
:1031D400BFFF21462420FFF7BBFF002038BD00BFFE
:1031E400001000500040005007B50DF1070001F039
:1031F400C9FC114B98421CD14FF480620F4B10490B
:10320400C3F8B8254FF40062C3F83C259DF80700C5
:1032140006F0E6F90B499DF8070006F0DCF90120F9
:103224009DF80730984001F0A1FC002003B05DF840
:1032340004FB6FF00B00F9E70000AD0B00A0025097
:103244002CA0025028A10250052370B5144D154E30
:103254002C780134B4FBF3F303EB8303E41A06F094
:10326400A8F9114A137823B156F82430C01A072854
:1032740014D94FF05023D3F8141141B10021C3F8ED
:103284001411D3F814312C700CB9012313702C7859
:1032940006F08FF946F82400012070BD0020FCE7F9
:1032A40035120020240E00203412002048B1054BB2
:1032B400054A1B68B3FBF2F35843044B43F0010384
:1032C400184770474800002040420F0000A6000045
:1032D4000149024805F053BD78A90000380E0020CA
:1032E4004FF47F032DE9F041D3F830210646072A35
:1032F4000D46D3F8343120D1023B032B02D8124AB5
:10330400D35CD3B14FF050244FF0010800270520BF
:10331400C4F81886C4F8147606F05BF94046C4F87D
:10332400148606F056F9C4F81476C4F818763046B4
:103334002B46BDE8F041002118474FF050230022EE
:10334400C3F81426F3E700BF09B5000073B5069C63
:10335400C4F30726304601F0DFF8E5B201462846FB
:1033640006F04AF9002201200A4BA40B04F0FC04E5
:103374001A51094BA84000938DF8042001F0FCFB7E
:10338400304601F07DFA2946684601F0F1FC02B0AE
:1033940070BD00BF80A00250007001507FB52C4B5F
:1033A40001A90293002302A88DF80C3001F0D8FC87
:1033B400284B984248D101F045FA041E0BDA9DF8D7
:1033C400041002A801F0D4FC01212346224A234818
:1033D40005F0FDFD35E040F60703214D8DF805406D
:1033E400AE68ADF806307468019B14B96FF05704E9
:1033F400EAE7082128461B4AA047041EE4DB336998
:10340400002BF3D00122082128469847041EDBDB59
:1034140001209DF80430984001F0A8FB9DF80500B8
:103424009DF804509DF8076006F0ADF80146284663
:1034340006F0D6F80C4BB60045F000459D51002C23
:10344400C2D1204604B070BD6FF01204BCE700BFC7
:10345400007001500000AD0B0DB50000E0A50000A8
:1034640030A300007134000080A102502DE9F34123
:10347400144683681B690BB100229847C4F30726DE
:10348400304601F051F80546304606F07CF84FF01E
:103494000008E7B20146384606F0B2F8104B220E97
:1034A400920043F80280304601F036F80D4A4FEAA4
:1034B400943C0CF0FC0C47F0004342F80C300146FD
:1034C400384606F088F8084B05F13202009330467E
:1034D40043460194520006F060F802B0BDE8F08162
:1034E40080A1025080A0025051330000084B70B5F7
:1034F400C31A0D4607499B10044659434022064807
:1035040005F0BBFE2B4601462046BDE87040184737
:10351400680E0020B76DDBB6E0A20000402373B54F
:103524000B4C0093041B0B460D460A49A41061433F
:103534000646094A094805F0CBFE011E05DA304665
:103544002B4602B0BDE87040184702B070BD00BF02
:10355400680E0020B76DDBB63D930000E0A20000CA
:1035640010B5EFF31184202383F31288BFF36F8F18
:10357400074A136823F00201DB07116002D401201B
:1035840006F0F3F884F31188BFF36F8F10BD00BF0A
:10359400080F00202DE9F8430022012106460520EA
:1035A400FFF7F0FA114801F0F3FA114B984219D1E0
:1035B40001F0FEFA00244FF01C090C27DFF83480D8
:1035C4003569414609FB045005F0D9FB002807DBA7
:1035D400012307FB04551C44042CAB67F0D10020E5
:1035E400BDE8F8836FF00400FAE700BFF536000089
:1035F4000000AD0B84A900001FB500220123CDE912
:1036040002236B46084ACDF800D0CDF804D005F06B
:103614008CFE002805DB4FF480420023684602F04C
:1036240067FE05B05DF804FB739300000C22104B99
:10363400014602FB0033002030B4D3E91C52186762
:10364400EFF31180202484F31288BFF36F8F9C6FF3
:1036540004F0C00444F002049C6780F31188BFF3B3
:103664006F8F1DB12B4630BC0248184730BC7047E1
:10367400680E0020E0A2000010B4EFF311822023B2
:1036840083F31288BFF36F8F1748016841F0020477
:103694000460C80707D482F31188BFF36F8F012039
:1036A40010BC01F09DBA4FF05021D1F80C04D1F8B0
:1036B4000C14C907EFD5EFF3118083F31288BFF31D
:1036C4006F8F0A498B6F03F0C00343F002038B67CB
:1036D40080F31188BFF36F8F82F31188BFF36F8F6C
:1036E400002010BCFFF7A2BF080F0020680E0020C6
:1036F400062812D8DFE800F0040F1111110D0B0099
:10370400064B986F10F0070007D1FFF78FBF022018
:10371400FBE70320F9E70120F7E77047680E002074
:103724002DE9F041012207463649D1E8EF3FC1E8CF
:10373400E02F0028F9D133B9334934484B60CB60CA
:103744008A6005F02FFB7B1E012B2BD8012F07D19C
:103754004FF05023D3F81C3403F00303022B21D081
:1037640006F0CFF90546F8B9294B1B78E3B14FF0C1
:10377400502302220646C3F808234FF05024DFF8F2
:103784009480D4F81824D4F81834D20315D503F04F
:103794000303022B01D0012F0FD16DB386F31188DF
:1037A400BFF36F8FBDE8F081EFF31186202383F31D
:1037B4001288BFF36F8F0125DFE7C5B1304605F0EE
:1037C40002FDD4F81835DBB2012BDAD1D4F8042188
:1037D400002AD6D00022C4F80421D4F804210222FD
:1037E400C4F818252022C8F88021A360C9E7002165
:1037F400212003F093F8E4E74FF050230222C3F8AA
:103804000423CFE7640E0020540E0020840E002011
:103814004812002000E100E008B5074806F0CEF8A1
:1038240038B10648FFF75AFC0448FDF73BFE002078
:1038340008BD6FF01200FBE71CA300004538000030
:103844000A2838B50446074D04D1AB680D21284633
:103854005B689847AB6803485B68E1B298472046C9
:1038640038BD00BF1CA30000F0B5406801F01F0480
:10387400057B87B044EA45140569002D63D0B2F591
:10388400001F00F1100506D12146284605F0EDFF82
:10389400002007B0F0BD0027B2F5800F01AE0197FC
:1038A400776039D1B3F1007F14BF052304238DF869
:1038B40004300023CDE904630393836823FA01F100
:1038C40011F001011AD1B2F1A07F17D104F01F0346
:1038D400620903F180032AD0012A3AD11E4A52F820
:1038E4002330DB070AD40DF103063246214628466D
:1038F40001F0AAFC194B98421BD002962146284697
:1039040003AA01F05DFB164B98421FD10122214608
:10391400284601F0FBFCBBE7B3F1C06F05D0B3F15F
:10392400007F14BF01230223C1E70323BFE70D4A2D
:10393400D5E73146284601F0E3FC094B9842DCD038
:103944006FF00B00A5E76FF08500A2E76FF015009C
:103954009FE751F82330FFDE002884500400AD0BAC
:103964000000AD0B0025845038B545682B69B3B110
:103974001035284601F0B4FC044680B901462846B7
:1039840001F07CFC084B98420BD12246284607499B
:1039940001F054FC224605210D20FFF7F3F8002026
:1039A40038BD6FF00400FBE70000AD0BB539000033
:1039B4004209034670B502D0012A17D070BD0D4EDE
:1039C400326951680029F9D0012503F01F030C68FE
:1039D4009D400029F2D08A682A4002D030464B68C4
:1039E40098472CB1236821461C46F2E7024EE7E7CC
:1039F4002346F8E708A30000F4A200002DE9F043F1
:103A040040F206354668D00648BF0320337B02EAFD
:103A1400050558BFC2F3401087B001F01F07B5F584
:103A2400837F144647EA43178DF8030044D00FD828
:103A3400062D18D007D8B5B1022D3FD06FF0150070
:103A440007B0BDE8F083B5F5807FF7D101250AE022
:103A540040F20222954233D0B5F5407F32D0B5F51D
:103A6400007FEBD102250123220303FA01F12BD5B8
:103A740073689960326972BB07F01F037F0928D00D
:103A8400012F75D13C4A02EB830284F48033D2F8CF
:103A94000012C3F30043C4F3404444EA430421F452
:103AA400706144EA800421F00F0144EA05230B43CA
:103AB400C2F800320020C3E70725D4E70425D2E783
:103AC4000525D0E70325CEE7630344BF7368D960B7
:103AD400D0E72A4AD7E71036394630460DF10202BC
:103AE40001F0B2FB14F4403F80460CD13946304615
:103AF40005F0B9FE224B9845DCD130469DF8021002
:103B040001F0F8FBD6E74FF0000901AB3946304627
:103B140003AACDE90439CDE90199CDF80C9001F05F
:103B24004FFA174B984289D114F4003315D09DF8FD
:103B3400033084F48034C4F300448DF80E303946E5
:103B44004B46304603AA8DF80C508DF80D4001F019
:103B5400F3FA0B4B9842CDD070E7CDE904333946E4
:103B64000DF10303304603AA039301F029FAF0E7A9
:103B7400803352F82330FFDE00288450002584501F
:103B84000000AD0B02780B69012A08D0022A08D084
:103B94004AB9064A1A6203F1100002F085BB044ACE
:103BA400F8E7044AF6E7044AF4E700BF0000AD0B67
:103BB4000100AE0B0200AE0B0100AD0B2DE9F04F7E
:103BC40089B002AFBB6043680546D3F828B09B8B2D
:103BD4000C463A61D0F810807B614FF0FF324FF011
:103BE400FF33404602F084FB08F11003FB6000261B
:103BF4000023002208F1100002F07AFB33463A69F0
:103C0400964201D3002341E0207A010700F1948019
:103C14003A690136964221680BD2820709D4227D83
:103C240080EA020C0CF0010C02F004025CEA020CC3
:103C340008D023B901F06042B2F1005F3FD04FF0E9
:103C4400000901E04FF001096268D7F814E003EBC2
:103C5400020CF44524D96C468CB0286802A9384D6E
:103C6400CA61C1E905537B690A46C1E9083040F2DB
:103C740003530B85334B42F8103F00234FF451514B
:103C84003148FDF7D5FF6FF01B03A5467B61404625
:103C940002F00AFB7B691C371846BD46BDE8F08F6D
:103CA400C00705D40BEB03007B6006F0E8F97B68E2
:103CB40062681A4493B2B9F1000F27D1D3B94FF017
:103CC4000009D4F800A0A388BA68217A2846009293
:103CD400524600F085F8031ED8DB4FF480420023DF
:103CE400F86802F005FB40B1284600F031F86FF0A7
:103CF4000403CBE79946DA46E6E7D8F82030134ABE
:103D04009342F4D1237ADB0702D400230C3476E700
:103D1400D345FAD123460AE0A9EB0201D8681FFA79
:103D240081F91AFA81F17B6006F0A9F97B685A6877
:103D34000C3B9145F0D2E8E76FF08503A6E700BF9E
:103D440094B500000600000198A500000000AD0B2A
:103D540070B5446823682046D3F80855D3F80C6539
:103D640001F0FAFC3146284601F092FF0546002195
:103D7400606A05F064FB204601F0DEFC034B9D42C3
:103D840014BF6FF00F00002070BD00BF0000AD0B2A
:103D940008B5CA0743681BD4C1F3420102290AD0FB
:103DA40003290CD001290ED14FF0CC721B680020DE
:103DB400C3F8242508BD4FF0C8621B68F7E74FF02D
:103DC4007F621B68F3E70121034A044805F0F6F813
:103DD4006FF01500EEE700BF76B6000098A500006E
:103DE400F0B50C461D46164689B0476812220021DC
:103DF4000DF10E0006F050F904F001038DF80C30BB
:103E0400BDF8383004958DF80D30BB8D0696AB4265
:103E14000AD21048009301212B460F4A05F0E1F81D
:103E24006FF01B0009B0F0BD84F00202C2F340023F
:103E34003846520103A901F0ADFC084B984207D063
:103E44000B33984214BF6FF004006FF00F00E9E7E2
:103E54000020E7E798A5000088B600000000AD0B3D
:103E6400B0B50446456800AF2B6A98470121686ADB
:103E740005F0E5FA23462846AA6905F1080101F090
:103E840021FC114B984217D023686C4688B06A46CF
:103E94000E49C2E905134FF4007393830C4B42F8A7
:103EA400103F0C4800234FF4E251FDF7C1FE6FF0C0
:103EB4000400A546BD46B0BD0121204605F0CEFA5A
:103EC40000EAE070F6E700BF0000AD0BCFB60000DB
:103ED4000300000198A5000010B504460269A2B0D1
:103EE400C2F880001F49002001F042FB002201219A
:103EF4002A20FEF747FE64688422002101A806F008
:103F0400CBF86368B3F5803F04D30221164A1748FF
:103F140005F054F82368B3F5803F04D30221144A12
:103F2400124805F04BF800230120219301AA61688F
:103F34000432D940C90744BF00FA03F142F8041C13
:103F44002168D940C90748BF00FA03F103F101030E
:103F540048BFD163102BEAD101A801F021FB002056
:103F640022B010BD51400000EFB60000B8A500001B
:103F74001BB7000038B50F290C4605693CD84368C7
:103F84001B68CB40DB0737D5D5F88430CB4003F032
:103F940001031AB9EBB96FF077002CE0002BFAD1CA
:103FA40055F8213023B90221154A164805F006F8C0
:103FB400D5F8843013B92A20FEF7B4FD0122D5F8D0
:103FC4008430A2401343C5F88430E0B201F008FB0A
:103FD4000AE0C8B201F00CFB0122D5F88430A240FB
:103FE40023EA0203C5F88430D5F8843013B92A20B3
:103FF400FEF7A6FD002038BD6FF01500FBE700BFFB
:1040040047B70000B8A5000038B505460C4622B1F4
:1040140002210C4A0C4804F0D1FF0F2C0ED86B6817
:104024005B68E340DB0709D501230020A400E4B268
:1040340004F1A04404F52834236038BD6FF0150062
:10404400FBE700BF77B70000B8A5000070B5D1F852
:1040540080600F2804460D46736803D81B68C3406C
:10406400DA0704D402210E4A0E4804F0A7FFD5F85B
:104074008430E340DB0704D402210B4A094804F0EE
:104084009DFF05EB840255F824503DB1214630468E
:10409400AC46BDE870400023126C604770BD00BFA1
:1040A40092B70000B8A50000AEB70000036803F0A3
:1040B4001F025B09026004D0012B034818BF0020D3
:1040C40070470248704700BF002884500025845080
:1040D4002DE9F04F1546834640F2FF18DFF888912A
:1040E400DFF888A185B000EB8101594503D1002098
:1040F40005B0BDE8F08FDBF80030C3F3C322082A13
:10410400C3F3080400F2AA801B0E444508BF4FF015
:10411400FF3419F80270222B00F2A380DFE803F0C9
:1041240012191F22252B22A1A1A1A13A67A1A1A1A5
:10413400A1A1A1A1A1A16A7F8285A1A1A1888F9239
:1041440095989B00C5F80C45601C5DD10BF1040BE0
:10415400CBE7C5F81445621CF8D000265DE0C5F82D
:104164000845F1E7C5F81045F5E7631CC5F80845AF
:10417400ECD0002604E0661CC5F80C45E6D0012608
:1041840003A80394FFF792FF0122039B02FA03F3AF
:10419400C36008E0C5F80845002FDCD1631CD5D006
:1041A400002606273246DBF80030039403F400406F
:1041B400002818BF002203A818BF0126019300920B
:1041C400FFF774FF039C019B00EB8400D0F80042CE
:1041D400C3F3412C009A3B0243EA8C03134304EAE1
:1041E4000A04234343EA4603C0F80032AEE7C5F8A5
:1041F4000C45D1E7C5F86045601CDBF80030A5D05C
:10420400C3F30043002BBAD0012603A80394FFF79D
:104214004DFF039B06FA03F383603246C3E7C5F8F8
:104224006445E9E7C5F86845E6E7C5F86C45E3E7A2
:10423400C5F82445621C89D001260022B3E7C5F8DD
:10424400284581E7C5F83045F4E7C5F83445F1E77A
:10425400C5F83845EEE7C5F83C4575E76FF015003D
:1042640046E76FF0850043E7E4B70000F0F0FCFF99
:104274002DE9F04104460D46476805F042FC4FF035
:10428400200888B9264B1B7873B16426606805F052
:104294003DF9F0B9012005F09CF9013EF6D1002169
:1042A400212002F03BFBF0E7EFF31186314688F35F
:1042B4001288BFF36F8F606805F028F9A8B986F3F8
:1042C4001188BFF36F8FEFE786F31188BFF36F8F09
:1042D400E5E7EFF31186314688F31288BFF36F8F59
:1042E400606805F013F90028EED0FB6900201D700A
:1042F4006368FA691B68C3F844250122C3F848259A
:10430400C3F82001D3F82041C3F85801D3F8580169
:104314009A6081F31188BFF36F8FBDE8F08100BF0D
:1043240048120020F7B50546002201210820FEF7B7
:1043340029FC0820FEF7F6FB6B681A691868C0F8B8
:104344002425997D5A7D0A43198B1B7D0B43134306
:10435400C0F86C356E68D6E9004313F0010350D001
:104364002F6907F1080000F00DFC334B984208D088
:1043740032480121324A04F021FE6FF0040003B0F8
:10438400F0BD387A04F10C0204F5907105F02DF9B2
:10439400387A012707FA00F000F0E8FB0823C4F894
:1043A4000035F369C4F844350023C4F84835A760E0
:1043B400D4F85831002BFBD00021C4F800156B68E9
:1043C40001AADC68204605F074F8002805DB019B8F
:1043D400226819791868FFF77BFE08216A68136858
:1043E400C3F80015117A51B9126AC3F834250122B1
:1043F400C3F83825C3F81011D3F810111A6000203F
:10440400BDE70822C4F80025F269C4F84425C4F8BD
:1044140048350123A360D4F82031002BFBD00023BE
:10442400C4F82031D4F820310123E3604FF48073C1
:10443400C4F80433BCE700BF0000AD0BE8A50000DE
:10444400EDB700000123834070B5DC430B4AD2E88A
:10445400EF1F01EA0405C2E8E65F002EF7D14FF42E
:10446400803282400648C0F80823BFF35F8FBFF351
:104474006F8F0B4214BF0120002070BDE40F002099
:104484000050015070B40E4922F07F46D1E9003447
:10449400D01AC31844F10004C1E90034A6F500138E
:1044A400B3F5400F09D2074B1B681A0A1B069C1967
:1044B400054B42F10005C3E9004570BC02F0B2BBF4
:1044C400F0060020E80F0020F8060020D9B10123EF
:1044D4000D4A8340D2E8EFCF4CEA030CC2E8E1CFA7
:1044E4000029F7D14FF48033084A8340C2F80433DB
:1044F400074BD3E8AF3FC340DB0742BF4FF4001282
:10450400044BC3F800217047E40F00200050015011
:10451400DC0F002000E100E0C3B202489B00184415
:10452400704700BF40510150024B00F5A87053F88A
:1045340020007047005001500D4B1868010A000616
:10454400BFF35F8F0B4BD3F80435181841F100010A
:10455400B3F5801F0AD2084BD3E90023904271EBD4
:10456400030303D210F1807041F10001704700BFD2
:10457400E80F002000500150F80600202DE9F04F0C
:1045840085B016461F4604469DF840A0FFF75AFF23
:104594000190FFF7D1FFB04271EB070352D23B4BBE
:1045A400301A67EB0101984271F100014DD2384B8A
:1045B40003EB0413D3E902239F4208BF964258D069
:1045C4004FF48038334908FA04F8204626F07F4B2C
:1045D400C1F8488304F0CBFF4FF00309584604F1B7
:1045E4005005AD00ADB205F1502504F5A87305F5ED
:1045F40080350293029A20F07F4341F82230C1F8BB
:104604004483D1F80435244AC01A033820F07F408B
:1046140090422ED9286868B1D1F80435A3EB0B0079
:1046240020F07F40B0F5000F039322D9204604F018
:104634009EFF039BBAF1000F07D109EB030009F1B8
:104644000109D7E7BAF1000F09D06FF0150520462C
:104654000199FFF73BFF284605B0BDE8F08F012321
:104664000E4AA340D2E8EF0F1843C2E8E10F002935
:10467400F8D107490E982301C8500F9B01EB04128F
:104684000025C2E902675360E1E700BF0100800032
:10469400D006002000500150FDFF7F00DC0F0020F9
:1046A4007FB500254FF0FF304FF0FF314FF48032DB
:1046B4001C4C1D4B0226C4F80833C4F848331B4B6A
:1046C400C4F80855C3E90201C4F80423C3E9060188
:1046D4004FF400334FF40012C4F80433144B012197
:1046E400C4F804631520C3F880212A46FEF74AFA69
:1046F4001520FEF717FA01230322A36023600D4B54
:1047040028461A600C4B0D4A1E600D4BCDE901552D
:1047140000930023FFF732FF3046FFF701F82846E5
:1047240004B070BD0050015003000F00D0060020FB
:1047340000E100E0E40F0020E00F0020FFFF7F0015
:10474400894400002DE9F04F394B85B0D3F8042398
:1047540092070BD5D3F8042142B10022C3F80421F7
:10476400344AD3F80431136801331360324D002402
:10477400A8464FF480362E4FD7F8043306FA04F9CE
:1047840019EA030F2ED00123A340DB432B49D1E8C0
:10479400EF2F02EA0300C1E8EC0FBCF1000FF6D1E1
:1047A40022FA04F3DB0703D4254B53F82430CBB1AE
:1047B400204604F0DCFEFFF7BFFEEFF31183202256
:1047C400029382F31288BFF36F8F08EB041CDCE9B9
:1047D40002AB504571EB0B010BD2029B83F31188A2
:1047E400BFF36F8F103514B105B0BDE8F08F01240D
:1047F400C2E70020D5E900134FF0FF3203934FF0D6
:10480400FF3328600A48CCE90223C0F848932046C5
:1048140004F0ADFE029B83F31188BFF36F8F002970
:10482400E0D0039B524600935B468847DAE700BF1B
:1048340000500150E80F0020D0060020DC0F0020BB
:104844004051015070B501240C4B186890B1B0FA76
:1048540080F0C0F11F0004FA00F1C943D3E8EF2F40
:1048640002EA0105C3E8E65F002EF7D1C240D20791
:10487400EBD570BD6FF00B00FBE700BFE00F00202D
:104884000123054A8340D2E8EF0F1843C2E8E10F41
:104894000029F8D1704700BFE00F002030B5431C59
:1048A400124C85B005D08442A8BF0446012CB8BF81
:1048B4000124FFF741FE0E4B0C4DD3E90013401ABF
:1048C400B0F5000F0FD22218AA4228BF2A460020B2
:1048D40052180849CDE90100009143F10003FFF7A4
:1048E4004DFE05B030BD2A46F1E700BFFFFF7F0053
:1048F400F00600208944000008B5FFF71DFE024BB6
:104904001B68C01A08BD00BFF00600204FF47F03E7
:10491400D3F83021D3F83431072A05D1023B032BD5
:1049240002D8024AD05C7047002070472EB80000BD
:1049340008B5FFF7EBFF58B1644BD3F8202A3AB916
:104944000D21C3F8201A0121C3F81C19C3F81C292E
:104954000022D30003F57F03D3F80013013107D0FD
:10496400D3F800130132D3F80433202A0B60F0D1BA
:10497400FFF7CCFF002840F0A080FFF7C7FF40B14D
:10498400534B544AC3F830254FF050230122C3F847
:1049940058254FF47F03D3F83021D3F83431072A54
:1049A40009D1023B032B06D84B4AD35C1BB100222E
:1049B4004A4BC3F84C25FFF7A9FF50B14FF05023E1
:1049C400D3F80024D10742BF0022C3F81421C3F84E
:1049D40018214FF47F03D3F83021D3F83431072A58
:1049E40009D14FF05023D3F80024D20744BF6FF00D
:1049F4000102C3F80024FFF789FF18B16522334B85
:104A0400C3F80C274FF47F03D3F83021D3F83431A3
:104A1400072A16D1314BD3F82034002B11DA4FF08A
:104A240050230322C3F8182501229A60D3F80421E5
:104A3400002AFBD00022C3F804210122DA60C3F863
:104A440018254FF47F03D3F83021D3F83431072AE3
:104A540023D1023B032B02D8214AD35CEBB17E2243
:104A64001A4B1B49C3F80C27C3F83C297F231D4A62
:104A7400C2F818310023C1F8043EC1F8083E01F51C
:104A84004821C1F81031C2F82431C2F82C3102F5A2
:104A9400FF1202F58052C2F8A032134AD2F88C30C9
:104AA40043F44063C2F88C30104A114B1168C3F8C8
:104AB4004415D269C3F84C2508BD2922034BC3F819
:104AC4000C270322C3F83C2757E700BF00400050DF
:104AD400009003504400EFBE2AB8000000200350A9
:104AE40026B800000020005000ED00E00080FF0028
:104AF4000060005030B50468ACB1B4FA84F301220C
:104B0400C3F11F03DBB29A4024EA0202D0E8EF5F4C
:104B1400A54204D1C0E8EC2FBCF1000FF6D1EAD1D4
:104B240002480B7030BD0248FCE700BF0000AD0B2B
:104B34000200AD0B10B50368CB40DB0710D4012392
:104B44008B40026843EA0201D0E8EF4F944204D15B
:104B5400C0E8EC1FBCF1000FF6D1F2D1014810BD42
:104B64000148FCE70000AD0B0400AD0B014BC3F89A
:104B74000405704700700150014BC3F808057047E5
:104B8400007001500146014800F0EAB84C000020D2
:104B9400044B1A7922B9012218601A71024870472D
:104BA40002487047EC0F00200000AD0B0C00AD0B69
:104BB40008B50A4B1B6833B10520FDF7D5FF10B9C2
:104BC4000520FDF7AFFF4FF050230122C3F818254D
:104BD400C3F81425C3F8802508BD00BFEC0F0020DE
:104BE40010B5032845D8DFE800F01802554F00221D
:104BF4004FF480730121002003F1502318601C68D6
:104C0400012402F150221460284A1268002A47D075
:104C14004FF05023C3F804132BE04FF05023D3F884
:104C24001814D3F81824C90312D502F00303022B75
:104C340005D0012B02D0002004F0E6FC01234FF044
:104C440050220221C2F8183508224FF48273D2E7A9
:104C5400D3F81424D207F1D5D3F81C2402F00302AC
:104C6400013A012AE7D8114A12681AB10222C3F89C
:104C7400042310BDD3F80421002AFBD00022C3F87A
:104C84000421D3F80431F4E718224FF490734FF45D
:104C94008071B0E720224FF492734FF40071AAE7B9
:104CA4001A68002AFCD018601B68E2E7EC0F0020A9
:104CB4004FF0502310B5D3F8002152B10020C3F8AF
:104CC4000001D3F800210122C3F80823234B1B68F9
:104CD40098474FF05023D3F8042182B10022C3F83F
:104CE4000421D3F80421D3F81824D3F8182402217A
:104CF40002F00302012A28D1C3F818159A604FF074
:104D04005023D3F8202162B10022C3F82021D3F824
:104D140020214FF48072C3F80823104B05201B6830
:104D240098474FF05023D3F82421AAB10022C3F8A6
:104D34002421D3F824214FF40072C3F80823074B2D
:104D44000620BDE810401B681847C3F80813034B3E
:104D540001201B689847D2E710BD00BFEC0F00206C
:104D64000079024B03EB0010FFF7C4BE540000208F
:104D74000123027900688B40C0F80835024800EB33
:104D84000210FFF7D7BE00BF54000020036803F0F1
:104D94001F025B09026004D0012B034818BF0020E6
:104DA40070470248704700BF002884500025845093
:104DB400034A4309D35C00F01F001844C0B2704793
:104DC40032B8000070B50546FFF7F2FF0C4C08300E
:104DD40034F810300E46DA0508D5C3F3432304EB48
:104DE400C302284654F8333052689847A3682BB15D
:104DF40031462846E268BDE87040184770BD00BFE0
:104E04006400002008B5FFF7D3FF034B083033F8E4
:104E14001000400B08BD00BF6400002008B5FFF778
:104E2400C7FF034B083033F81000C0F3400008BD3F
:104E34006400002008B5FFF7BBFF034B083033F8CC
:104E44001000C0F3401008BD64000020034611F0B8
:104E5400010010B5CCB20BD1A207C4F340000DD5AC
:104E6400074A106A58601062003818BF012005E034
:104E740004490A6A1A600A62002AEDD010BD00BF14
:104E8400002884500025845010B5FFF791FF124A82
:104E9400083032F81030D9051CD5C3F3432123F46C
:104EA400F85322F81030002002F10E0434F8023FC7
:104EB40013F4807F03D0C3F3432399420AD0013013
:104EC4003028F3D1002342F831300448BDE81040C3
:104ED400FFF730BE10BD00BF64000020DC000020DE
:104EE400F0B5054600200126044607468C420BD146
:104EF400114BD3F87C2132B10022C3F87C21D3F8C2
:104F04007C3140F00040F0BDE3B29B0003F58072B9
:104F14009B0806FA03F31D420BD002F1A04202F5EE
:104F24005042D2F800C0BCF1000F02D017601268E2
:104F340018430134DAE700BF00D00050F7B5064645
:104F44000846FFF735FF1A4F00F1080537F815300A
:104F54000C46DB072AD5304604F061FC2046FFF7F7
:104F640069FF58B12046FFF74DFF0022316800B2B7
:104F740001EB8003C3F81025C3F810252046FFF782
:104F840083FF002301A827F815300194FFF7FEFEE4
:104F9400019B00EB8300D0F80022064B134043F042
:104FA4000203C0F80032044803B0F0BD0348FBE735
:104FB40064000020F0F0FCFF0000AD0B0400AD0B1A
:104FC4002DE9F0431646804685B00846FFF7F0FE0B
:104FD4000D463168044609B32846FFF71FFF18B190
:104FE4002846FFF727FF10BB00230DF10F02CDE980
:104FF40000338DF80E308DF80F3028460B460DF136
:105004000E0104F0B4FB484A04F1080132F81130EF
:1050140023F0020343F0010322F8113073687BB3D9
:1050240028461F785968FFF7F9FE10B1E9B13F48E7
:1050340029E03D4A04F1080032F8103023F020033F
:10504400DB04DB0C22F8103079B1032FEFD8716840
:10505400D1F804E0D8F800109EF800C001EB8C01F0
:10506400A7B9C1F81075C1F810752F4A04F10801E9
:1050740032F8113023F01C0343EA870322F811307D
:10508400B3683BBB2A4805B0BDE8F083D1F810E50E
:1050940043EA4C332EF0030EC1F810E5D8F80010A3
:1050A40043F0200301EB8C0EDEF8101522F81030CB
:1050B40021F44F3121F44071CEF810152902DEF8A5
:1050C400108501F47C5141EA074141EA0801CEF818
:1050D4001015CAE72846D3E90067FFF7D5FE002E6E
:1050E400D0D0114DD5E90023964203D19F4201D17E
:1050F400002209E00F480DF10F01FFF7FBFC0C4BF8
:105104009842C0D19DF80F2005EBC20308345F60BC
:1051140035F8143045F8326043EA422343F480738F
:1051240025F81430AEE700BF640000200400AD0B86
:105134000000AD0BDC0000202DE9F0430C46804656
:1051440085B0204611461D46FFF732FE064629B3B8
:105154002046FFF763FE18B92046FFF76BFE18BB25
:10516400334F06F1080937F8193013F01C0F02D039
:105174004B78012B18D001238DF80F3000234A1CE3
:10518400CDE9001320468B1C0DF10F0104F0EFFA5A
:1051940037F8193043F0030327F81930002D44D0B1
:1051A4002046FFF73BFE18B9224805B0BDE8F0835E
:1051B400002295F800C0D8F800301D4F03EB8C0393
:1051C400C3F81025C3F8102506F1080237F81210A9
:1051D4004FEA8C0E21F02001C904C90C27F81210E3
:1051E4006E7816B3D8F80000AD787044D0F8103556
:1051F400360423F4991323F4F853C0F8103523022A
:1052040003F47C5306F440362D05D0F810E53343FF
:1052140005F480152B4341EA4C3143EA0E0341F077
:105224002001C0F8103527F812100348BDE700BF6D
:10523400640000200400AD0B0000AD0B014BC3E97A
:10524400021270476400002010B508461446FFF7A8
:10525400F1FD50B10846FFF7ABFD054B083033F8BC
:10526400103004485B0B237010BD0348FCE700BFFB
:10527400640000200000AD0B0400AD0B70B5154DAB
:10528400064695F880401CBB2146602205F11000BB
:1052940004F002FF214630682E6F8E420ED10023A7
:1052A400C0F87C31D0F87C3140F30730FDF73AFC8C
:1052B4000123094885F88030AB6770BDCBB29B00F1
:1052C40003F580727C2B04BF845083580131E4E7DA
:1052D4000248F2E7640000200000AD0B0C00AD0BA7
:1052E400034B93F88000003818BF0120704700BFBB
:1052F400640000200148FFF71DBC00BFD800002057
:105304000148FFF7F7BB00BFD800002073B503685E
:105314001646D3F804230546002AA8BF4FF00042DE
:105324000846A8BFC3F804230C46FFF783FD00B367
:105334000846FFF773FD0146D8B92046FFF762FD22
:1053440004B2A4000346286804F5807281502968D9
:1053540082582144D1F8102542F00102C1F81025E9
:105364002EB10122296802FA03F3C1F8043302B012
:1053740070BD2046FFF71CFD0E4B083033F810308B
:10538400C3F38203042B11D0052B11D001A801947F
:10539400FFF7FCFC019A0369D34003F00103991C55
:1053A400204602B0BDE8704004F02ABA0321F7E7B2
:1053B4000221F5E7640000202DE9F04F684BDFF887
:1053C400A481D3F80403D8F87010C0B289B040F0B7
:1053D4000040FFF785FD051E2FDAC24600235AF868
:1053E4007C1F06A8CDE90633FFF730FD4FF0000B14
:1053F4005D4B0DF118090193019A12F8013B0192DA
:10540400DA081AF8022003F0070322FA03F3DA0792
:105414001CD409F10409BBF1000F14D0D8F87010A2
:105424004FF00040FFF75CFDD8F87C1006A8FFF7AA
:105434000DFD0028DAD125F000450124002D76D198
:1054440009B0BDE8F08F4FF0010BD5E7474B5B4443
:105454000293D9F800100029DBD091FAA1F1B1FA36
:1054640081F1029B1C7841EA44142046FFF7A0FC1A
:10547400083038F81070C808BB080393012319F8E2
:10548400002001F0070103FA01F122EA010209F800
:10549400002005A80594FFF779FC059A039B803248
:1054A40050F82220C7F382065B073746C2F3014255
:1054B40022D520463946D6B2FFF784FC05A80594C8
:1054C400FFF764FC059B803350F82330C3F301439A
:1054D4009E4207D10021204604F092F9314620462D
:1054E40004F08EF905A80594FFF750FC0122059BF2
:1054F40002FA03F30362ACE7022A0CD1032120462B
:1055040004F07EF906F00503012BEBD13946204661
:10551400FFF758FCE6E702212046039204F070F9F5
:10552400032EF3D0039A032ADCD1022EEDE795FA79
:10553400A5F3B3FA83F304FA03F29B0003F1A04347
:1055440003F55043D3F81005D3F81015C0F3052024
:10555400C1F3014125EA0205FFF734FC6EE700BF01
:1055640000D000506400002042B8000042B800009F
:1055740070B5084C0E462379154643B92A20FDF729
:10558400D1FA0123044823712660A56070BD034845
:10559400FCE700BFF40F00200000AD0B0C00AD0BC6
:1055A400002330B50D4A50F8234003F5A2710133AE
:1055B400102B42F82140F6D10023084A00F13C01A7
:1055C40003F5B27451F8045F0133102B42F82450F0
:1055D400F6D1D0F88030C2F8043330BD00A00250B8
:1055E4000123024A8340C2F80433704700A00250EA
:1055F4000123024A8340C2F80833704700A00250D6
:10560400F8B5012600270B4B0B4DD3F80C4304B916
:10561400F8BD94FAA4F0B0FA80F006FA00F324EA94
:105624000304064B82009F502B68002BEFD0A9681F
:105634009847ECE700A00250F40F002000A10250AC
:1056440030B500F01F04400911D0012811D10B48D6
:1056540000EB8400D0F80052094C1B0243EA82029A
:105664002C4042EA41012143C0F8001230BD0548F4
:10567400EEE70023803453F82430FFDE0028845002
:10568400F0F0FCFF0025845010B4CC7B8A680368DA
:105694002CB9D1E90041C3F80845C3F80C15C3F887
:1056A4002425282203795343054AD3582BB1006893
:1056B40010BC40F30730FDF735BA10BC704700BF8B
:1056C400001000202DE9F041074690F804802820BE
:1056D40000FB08F0144E0C46351895F82210F1B969
:1056E400A96032506B6085F8251085F824106CB1E0
:1056F400A37B204685F8273004F0EAF888B1637B61
:105704002146384685F82630FFF7BEFF282303FBE1
:1057140008660123054886F82230BDE8F081044874
:10572400FBE70448F9E700BF001000200000AD0BC0
:105734000C00AD0B0400AD0B062103680279C3F81D
:1057440000152821034B01FB0233022283F8222097
:10575400704700BF00100020282102790B4B01FB89
:1057640002330021996002680948C2F80803D2F89C
:10577400000220F4BC50C2F80002C2F80015012255
:1057840083F8241083F82220704700BF0010002003
:1057940002029C012DE9F84F28239046002290F83C
:1057A4000490AE4D046803FB095383F823204B682F
:1057B4000E4633B1CB6803F06043B3F1005F40F0B1
:1057C40085813378023B012B06D8336903F06043AB
:1057D400B3F1005F40F07A81A14BC4F80833282369
:1057E40003FB095393F8241001F0FF0239B19B68BD
:1057F400DFF870B2C4F804335846BDE8F88F18F0E7
:10580400140F0CBF0121002183F82410317809EB17
:10581400890783F82010717805EBC70783F82110F6
:10582400F168D9607168196131695961B168C3F867
:105834001C809961C8F3001183F825107378C4F8AB
:105844008835C4F86021D4F86031C4F84821D4F80C
:105854004831C4F82421D4F82431C4F80421D4F8FC
:10586400043118F0010318BF0123C4F8503518F0AF
:10587400020318BF0123C4F840353378032B00F228
:10588400A480DFE803F0799962024FF48073C4F8CE
:105894000032D7E90323C4F84425C4F8483501236A
:1058A400A3604FF48011204604F04DF80028F8D18D
:1058B400D7E90523C4F84425C4F8483528234FF410
:1058C400802203FB09539A60DFF89CB1282202FB73
:1058D40009F218F0080AAB5805EB020013D131782D
:1058E400032910D0012940F086802160002B6FD05D
:1058F400282202FB09F27168AA5821B9002A00F093
:10590400BB8001226261282202FB09F2A918AA586D
:10591400002A00F0B18018F0040F1CBF00228A6036
:1059240018F0400F06D1282202FB0952916841F079
:1059340002019160282202FB0952916841F400712E
:1059440091609268C4F8042356E7D7E90323C4F8A6
:105954004425C4F84835D7E90523C4F83425C4F8E8
:1059640038354FF48453C4F80032012323622823CA
:10597400022203FB0953A6E718F0200FD7E90323FB
:10598400C4F8442514BF4FF480724FF40072C4F875
:1059940048354FF0280315BFC4F80022C4F800228C
:1059A4004FF48022022214BF03FB095303FB095363
:1059B4009A600123236287E7D7E90323C4F83425D7
:1059C400C4F838354FF48053CDE7DFF8A0B07DE755
:1059D400026902B961612649DFF898A0204603F004
:1059E400B2FF012210F4007F18BF626110EA0A0FAF
:1059F4001F49F3D07CE70121A160002B7FF478AF2D
:105A0400006918B31B4B1AEA030F7FF471AF2046E9
:105A1400174903F098FF10F4007F8246F2D04FF04C
:105A24008071204603F08FFFD4F8001280B111F486
:105A3400007003D10122824622626261CB05E1D566
:105A44004FF48021204603F07EFF04E06161D9E732
:105A54000122226262614FF0000AD3E700100020A5
:105A640002029C010B00AD0B0000AD0B0400AD0B5A
:105A74000202040002000400282101FB0955002150
:105A8400D4F8C424C4F8C42485F824108AB1114974
:105A9400114B12F0010F14BF8B469B46013112F0DB
:105AA400020F18BF8B4612F0040F0C4A18BF93461E
:105AB400A2E618F0400F7FF49FAE3946204603F06B
:105AC400D6FE054A002808BF934695E6DFF810B0D5
:105AD40092E600BF0000AE0B0100AD0B0200AE0B5E
